{
  "_format": "hh3-artifact-1",
  "contractName": "CCIPReceiver",
  "sourceName": "contracts/CCIPReceiver.sol",
  "abi": [
    {
      "inputs": [
        {
          "internalType": "address",
          "name": "_router",
          "type": "address"
        },
        {
          "internalType": "address",
          "name": "_escrowGame",
          "type": "address"
        },
        {
          "internalType": "uint64",
          "name": "_trustedSourceChain",
          "type": "uint64"
        }
      ],
      "stateMutability": "nonpayable",
      "type": "constructor"
    },
    {
      "inputs": [
        {
          "internalType": "address",
          "name": "owner",
          "type": "address"
        }
      ],
      "name": "OwnableInvalidOwner",
      "type": "error"
    },
    {
      "inputs": [
        {
          "internalType": "address",
          "name": "account",
          "type": "address"
        }
      ],
      "name": "OwnableUnauthorizedAccount",
      "type": "error"
    },
    {
      "anonymous": false,
      "inputs": [
        {
          "indexed": true,
          "internalType": "address",
          "name": "user",
          "type": "address"
        },
        {
          "indexed": false,
          "internalType": "uint256",
          "name": "amount",
          "type": "uint256"
        },
        {
          "indexed": false,
          "internalType": "uint64",
          "name": "sourceChain",
          "type": "uint64"
        },
        {
          "indexed": false,
          "internalType": "bytes32",
          "name": "messageId",
          "type": "bytes32"
        },
        {
          "indexed": true,
          "internalType": "address",
          "name": "sender",
          "type": "address"
        }
      ],
      "name": "CreditReceived",
      "type": "event"
    },
    {
      "anonymous": false,
      "inputs": [
        {
          "indexed": true,
          "internalType": "address",
          "name": "oldEscrowGame",
          "type": "address"
        },
        {
          "indexed": true,
          "internalType": "address",
          "name": "newEscrowGame",
          "type": "address"
        }
      ],
      "name": "EscrowGameUpdated",
      "type": "event"
    },
    {
      "anonymous": false,
      "inputs": [
        {
          "indexed": true,
          "internalType": "address",
          "name": "previousOwner",
          "type": "address"
        },
        {
          "indexed": true,
          "internalType": "address",
          "name": "newOwner",
          "type": "address"
        }
      ],
      "name": "OwnershipTransferred",
      "type": "event"
    },
    {
      "anonymous": false,
      "inputs": [
        {
          "indexed": true,
          "internalType": "address",
          "name": "oldRouter",
          "type": "address"
        },
        {
          "indexed": true,
          "internalType": "address",
          "name": "newRouter",
          "type": "address"
        }
      ],
      "name": "RouterUpdated",
      "type": "event"
    },
    {
      "anonymous": false,
      "inputs": [
        {
          "indexed": false,
          "internalType": "uint64",
          "name": "oldSourceChain",
          "type": "uint64"
        },
        {
          "indexed": false,
          "internalType": "uint64",
          "name": "newSourceChain",
          "type": "uint64"
        }
      ],
      "name": "SourceChainUpdated",
      "type": "event"
    },
    {
      "inputs": [
        {
          "internalType": "bytes32",
          "name": "messageId",
          "type": "bytes32"
        }
      ],
      "name": "emergencyPauseMessage",
      "outputs": [],
      "stateMutability": "nonpayable",
      "type": "function"
    },
    {
      "inputs": [],
      "name": "escrowGame",
      "outputs": [
        {
          "internalType": "address",
          "name": "",
          "type": "address"
        }
      ],
      "stateMutability": "view",
      "type": "function"
    },
    {
      "inputs": [],
      "name": "getStatistics",
      "outputs": [
        {
          "internalType": "uint256",
          "name": "_totalCreditsProcessed",
          "type": "uint256"
        },
        {
          "internalType": "uint256",
          "name": "_totalAmountCredited",
          "type": "uint256"
        },
        {
          "internalType": "uint256",
          "name": "_processedMessageCount",
          "type": "uint256"
        }
      ],
      "stateMutability": "view",
      "type": "function"
    },
    {
      "inputs": [],
      "name": "getSupportedTokens",
      "outputs": [
        {
          "internalType": "address[]",
          "name": "tokens",
          "type": "address[]"
        }
      ],
      "stateMutability": "pure",
      "type": "function"
    },
    {
      "inputs": [
        {
          "internalType": "address",
          "name": "user",
          "type": "address"
        }
      ],
      "name": "getUserCreditCount",
      "outputs": [
        {
          "internalType": "uint256",
          "name": "creditCount",
          "type": "uint256"
        }
      ],
      "stateMutability": "view",
      "type": "function"
    },
    {
      "inputs": [
        {
          "internalType": "bytes32",
          "name": "messageId",
          "type": "bytes32"
        },
        {
          "internalType": "uint64",
          "name": "sourceChain",
          "type": "uint64"
        },
        {
          "internalType": "bytes",
          "name": "data",
          "type": "bytes"
        },
        {
          "internalType": "address",
          "name": "sender",
          "type": "address"
        }
      ],
      "name": "handleMessage",
      "outputs": [],
      "stateMutability": "nonpayable",
      "type": "function"
    },
    {
      "inputs": [
        {
          "internalType": "bytes32",
          "name": "messageId",
          "type": "bytes32"
        }
      ],
      "name": "isMessageProcessed",
      "outputs": [
        {
          "internalType": "bool",
          "name": "processed",
          "type": "bool"
        }
      ],
      "stateMutability": "view",
      "type": "function"
    },
    {
      "inputs": [],
      "name": "owner",
      "outputs": [
        {
          "internalType": "address",
          "name": "",
          "type": "address"
        }
      ],
      "stateMutability": "view",
      "type": "function"
    },
    {
      "inputs": [
        {
          "internalType": "bytes32",
          "name": "",
          "type": "bytes32"
        }
      ],
      "name": "processedMessages",
      "outputs": [
        {
          "internalType": "bool",
          "name": "",
          "type": "bool"
        }
      ],
      "stateMutability": "view",
      "type": "function"
    },
    {
      "inputs": [
        {
          "internalType": "address",
          "name": "token",
          "type": "address"
        },
        {
          "internalType": "address",
          "name": "to",
          "type": "address"
        },
        {
          "internalType": "uint256",
          "name": "amount",
          "type": "uint256"
        }
      ],
      "name": "recoverToken",
      "outputs": [],
      "stateMutability": "nonpayable",
      "type": "function"
    },
    {
      "inputs": [],
      "name": "renounceOwnership",
      "outputs": [],
      "stateMutability": "nonpayable",
      "type": "function"
    },
    {
      "inputs": [
        {
          "internalType": "address",
          "name": "_escrowGame",
          "type": "address"
        }
      ],
      "name": "setEscrowGame",
      "outputs": [],
      "stateMutability": "nonpayable",
      "type": "function"
    },
    {
      "inputs": [
        {
          "internalType": "address",
          "name": "_router",
          "type": "address"
        }
      ],
      "name": "setTrustedRouter",
      "outputs": [],
      "stateMutability": "nonpayable",
      "type": "function"
    },
    {
      "inputs": [
        {
          "internalType": "uint64",
          "name": "_sourceChain",
          "type": "uint64"
        }
      ],
      "name": "setTrustedSourceChain",
      "outputs": [],
      "stateMutability": "nonpayable",
      "type": "function"
    },
    {
      "inputs": [
        {
          "internalType": "address",
          "name": "_sender",
          "type": "address"
        }
      ],
      "name": "setTrustedSourceSender",
      "outputs": [],
      "stateMutability": "nonpayable",
      "type": "function"
    },
    {
      "inputs": [
        {
          "internalType": "address",
          "name": "user",
          "type": "address"
        },
        {
          "internalType": "uint256",
          "name": "amount",
          "type": "uint256"
        },
        {
          "internalType": "uint64",
          "name": "sourceChain",
          "type": "uint64"
        }
      ],
      "name": "simulateCrossChainCredit",
      "outputs": [],
      "stateMutability": "nonpayable",
      "type": "function"
    },
    {
      "inputs": [],
      "name": "totalAmountCredited",
      "outputs": [
        {
          "internalType": "uint256",
          "name": "",
          "type": "uint256"
        }
      ],
      "stateMutability": "view",
      "type": "function"
    },
    {
      "inputs": [],
      "name": "totalCreditsProcessed",
      "outputs": [
        {
          "internalType": "uint256",
          "name": "",
          "type": "uint256"
        }
      ],
      "stateMutability": "view",
      "type": "function"
    },
    {
      "inputs": [
        {
          "internalType": "address",
          "name": "newOwner",
          "type": "address"
        }
      ],
      "name": "transferOwnership",
      "outputs": [],
      "stateMutability": "nonpayable",
      "type": "function"
    },
    {
      "inputs": [],
      "name": "trustedRouter",
      "outputs": [
        {
          "internalType": "address",
          "name": "",
          "type": "address"
        }
      ],
      "stateMutability": "view",
      "type": "function"
    },
    {
      "inputs": [],
      "name": "trustedSourceChain",
      "outputs": [
        {
          "internalType": "uint64",
          "name": "",
          "type": "uint64"
        }
      ],
      "stateMutability": "view",
      "type": "function"
    },
    {
      "inputs": [],
      "name": "trustedSourceSender",
      "outputs": [
        {
          "internalType": "address",
          "name": "",
          "type": "address"
        }
      ],
      "stateMutability": "view",
      "type": "function"
    },
    {
      "inputs": [
        {
          "internalType": "address",
          "name": "",
          "type": "address"
        }
      ],
      "name": "userCreditCount",
      "outputs": [
        {
          "internalType": "uint256",
          "name": "",
          "type": "uint256"
        }
      ],
      "stateMutability": "view",
      "type": "function"
    },
    {
      "stateMutability": "payable",
      "type": "receive"
    }
  ],
  "bytecode": "0x608060405234801562000010575f80fd5b5060405162002c4d38038062002c4d8339818101604052810190620000369190620004a7565b335f73ffffffffffffffffffffffffffffffffffffffff168173ffffffffffffffffffffffffffffffffffffffff1603620000aa575f6040517f1e4fbdf7000000000000000000000000000000000000000000000000000000008152600401620000a1919062000511565b60405180910390fd5b620000bb816200033f60201b60201c565b505f73ffffffffffffffffffffffffffffffffffffffff168373ffffffffffffffffffffffffffffffffffffffff16036200012d576040517f08c379a000000000000000000000000000000000000000000000000000000000815260040162000124906200058a565b60405180910390fd5b5f73ffffffffffffffffffffffffffffffffffffffff168273ffffffffffffffffffffffffffffffffffffffff16036200019e576040517f08c379a00000000000000000000000000000000000000000000000000000000081526004016200019590620005f8565b60405180910390fd5b8260025f6101000a81548173ffffffffffffffffffffffffffffffffffffffff021916908373ffffffffffffffffffffffffffffffffffffffff1602179055508160015f6101000a81548173ffffffffffffffffffffffffffffffffffffffff021916908373ffffffffffffffffffffffffffffffffffffffff16021790555080600360146101000a81548167ffffffffffffffff021916908367ffffffffffffffff1602179055508273ffffffffffffffffffffffffffffffffffffffff165f73ffffffffffffffffffffffffffffffffffffffff167f02dc5c233404867c793b749c6d644beb2277536d18a7e7974d3f238e4c6f168460405160405180910390a38173ffffffffffffffffffffffffffffffffffffffff165f73ffffffffffffffffffffffffffffffffffffffff167f86fcf1f38573a557d47134199cf36acccaeff2b154d5ed0e34225c4fc6d9e65160405160405180910390a37f13b94e0f848185b4542109534e8dc38131ef57d1be1282a5a8bea245a2c139245f826040516200032e92919062000673565b60405180910390a15050506200069e565b5f805f9054906101000a900473ffffffffffffffffffffffffffffffffffffffff169050815f806101000a81548173ffffffffffffffffffffffffffffffffffffffff021916908373ffffffffffffffffffffffffffffffffffffffff1602179055508173ffffffffffffffffffffffffffffffffffffffff168173ffffffffffffffffffffffffffffffffffffffff167f8be0079c531659141344cd1fd0a4f28419497f9722a3daafe3b4186f6b6457e060405160405180910390a35050565b5f80fd5b5f73ffffffffffffffffffffffffffffffffffffffff82169050919050565b5f6200042f8262000404565b9050919050565b620004418162000423565b81146200044c575f80fd5b50565b5f815190506200045f8162000436565b92915050565b5f67ffffffffffffffff82169050919050565b620004838162000465565b81146200048e575f80fd5b50565b5f81519050620004a18162000478565b92915050565b5f805f60608486031215620004c157620004c062000400565b5b5f620004d0868287016200044f565b9350506020620004e3868287016200044f565b9250506040620004f68682870162000491565b9150509250925092565b6200050b8162000423565b82525050565b5f602082019050620005265f83018462000500565b92915050565b5f82825260208201905092915050565b7f496e76616c696420726f757465722061646472657373000000000000000000005f82015250565b5f620005726016836200052c565b91506200057f826200053c565b602082019050919050565b5f6020820190508181035f830152620005a38162000564565b9050919050565b7f496e76616c696420657363726f772067616d65206164647265737300000000005f82015250565b5f620005e0601b836200052c565b9150620005ed82620005aa565b602082019050919050565b5f6020820190508181035f8301526200061181620005d2565b9050919050565b5f819050919050565b5f819050919050565b5f6200064a620006446200063e8462000618565b62000621565b62000465565b9050919050565b6200065c816200062a565b82525050565b6200066d8162000465565b82525050565b5f604082019050620006885f83018562000651565b62000697602083018462000662565b9392505050565b6125a180620006ac5f395ff3fe608060405260043610610143575f3560e01c80637bd125c1116100b5578063b41e6c991161006e578063b41e6c991461042c578063b8ca4fac14610456578063c2c934e614610480578063ccff51e7146104aa578063d3c7c2c7146104e6578063f2fde38b146105105761014a565b80637bd125c11461032457806388ba16ab1461034c5780638da5cb5b146103885780639371b53e146103b25780639acda3bb146103da578063a7229fd9146104045761014a565b80635b7cc80e116101075780635b7cc80e1461022e578063694e99a3146102565780636acdcc4b14610280578063715018a6146102bc57806371d51ec3146102d2578063733f8b43146102fa5761014a565b806319e717711461014e5780631bd31ef614610176578063372d6b27146101b25780634104d453146101de5780634e0f5cc8146102065761014a565b3661014a57005b5f80fd5b348015610159575f80fd5b50610174600480360381019061016f91906116fe565b610538565b005b348015610181575f80fd5b5061019c6004803603810190610197919061175c565b6105f1565b6040516101a991906117a1565b60405180910390f35b3480156101bd575f80fd5b506101c6610617565b6040516101d5939291906117d2565b60405180910390f35b3480156101e9575f80fd5b5061020460048036038101906101ff9190611844565b61062e565b005b348015610211575f80fd5b5061022c600480360381019061022791906116fe565b6106b6565b005b348015610239575f80fd5b50610254600480360381019061024f9190611899565b6107ef565b005b348015610261575f80fd5b5061026a610a54565b60405161027791906118f8565b60405180910390f35b34801561028b575f80fd5b506102a660048036038101906102a191906116fe565b610a79565b6040516102b39190611911565b60405180910390f35b3480156102c7575f80fd5b506102d0610abf565b005b3480156102dd575f80fd5b506102f860048036038101906102f3919061198b565b610ad2565b005b348015610305575f80fd5b5061030e610fe0565b60405161031b9190611a1e565b60405180910390f35b34801561032f575f80fd5b5061034a6004803603810190610345919061175c565b610ffa565b005b348015610357575f80fd5b50610372600480360381019061036d919061175c565b61102e565b60405161037f91906117a1565b60405180910390f35b348015610393575f80fd5b5061039c61104b565b6040516103a991906118f8565b60405180910390f35b3480156103bd575f80fd5b506103d860048036038101906103d391906116fe565b611072565b005b3480156103e5575f80fd5b506103ee6111ab565b6040516103fb91906118f8565b60405180910390f35b34801561040f575f80fd5b5061042a60048036038101906104259190611a37565b6111d0565b005b348015610437575f80fd5b5061044061142a565b60405161044d9190611911565b60405180910390f35b348015610461575f80fd5b5061046a611430565b60405161047791906118f8565b60405180910390f35b34801561048b575f80fd5b50610494611455565b6040516104a19190611911565b60405180910390f35b3480156104b5575f80fd5b506104d060048036038101906104cb91906116fe565b61145b565b6040516104dd9190611911565b60405180910390f35b3480156104f1575f80fd5b506104fa611470565b6040516105079190611b3e565b60405180910390f35b34801561051b575f80fd5b50610536600480360381019061053191906116fe565b6114c0565b005b610540611544565b5f73ffffffffffffffffffffffffffffffffffffffff168173ffffffffffffffffffffffffffffffffffffffff16036105ae576040517f08c379a00000000000000000000000000000000000000000000000000000000081526004016105a590611bb8565b60405180910390fd5b8060035f6101000a81548173ffffffffffffffffffffffffffffffffffffffff021916908373ffffffffffffffffffffffffffffffffffffffff16021790555050565b5f60045f8381526020019081526020015f205f9054906101000a900460ff169050919050565b5f805f600554925060065491506005549050909192565b610636611544565b5f600360149054906101000a900467ffffffffffffffff16905081600360146101000a81548167ffffffffffffffff021916908367ffffffffffffffff1602179055507f13b94e0f848185b4542109534e8dc38131ef57d1be1282a5a8bea245a2c1392481836040516106aa929190611bd6565b60405180910390a15050565b6106be611544565b5f73ffffffffffffffffffffffffffffffffffffffff168173ffffffffffffffffffffffffffffffffffffffff160361072c576040517f08c379a000000000000000000000000000000000000000000000000000000000815260040161072390611c47565b60405180910390fd5b5f60025f9054906101000a900473ffffffffffffffffffffffffffffffffffffffff1690508160025f6101000a81548173ffffffffffffffffffffffffffffffffffffffff021916908373ffffffffffffffffffffffffffffffffffffffff1602179055508173ffffffffffffffffffffffffffffffffffffffff168173ffffffffffffffffffffffffffffffffffffffff167f02dc5c233404867c793b749c6d644beb2277536d18a7e7974d3f238e4c6f168460405160405180910390a35050565b6107f7611544565b5f73ffffffffffffffffffffffffffffffffffffffff168373ffffffffffffffffffffffffffffffffffffffff1603610865576040517f08c379a000000000000000000000000000000000000000000000000000000000815260040161085c90611caf565b60405180910390fd5b5f82116108a7576040517f08c379a000000000000000000000000000000000000000000000000000000000815260040161089e90611d17565b60405180910390fd5b5f83838342436040516020016108c1959493929190611dce565b60405160208183030381529060405280519060200120905060015f9054906101000a900473ffffffffffffffffffffffffffffffffffffffff1673ffffffffffffffffffffffffffffffffffffffff16630145317c8585856040518463ffffffff1660e01b815260040161093793929190611e2c565b5f604051808303815f87803b15801561094e575f80fd5b505af1158015610960573d5f803e3d5ffd5b5050505060055f81548092919061097690611e8e565b91905055508260065f82825461098c9190611ed5565b9250508190555060075f8573ffffffffffffffffffffffffffffffffffffffff1673ffffffffffffffffffffffffffffffffffffffff1681526020019081526020015f205f8154809291906109e090611e8e565b91905055503373ffffffffffffffffffffffffffffffffffffffff168473ffffffffffffffffffffffffffffffffffffffff167f38c93ccbc9b695a742ebb95c67afef0bb69c6346bdbf73784bff158a52e11620858585604051610a4693929190611f17565b60405180910390a350505050565b60015f9054906101000a900473ffffffffffffffffffffffffffffffffffffffff1681565b5f60075f8373ffffffffffffffffffffffffffffffffffffffff1673ffffffffffffffffffffffffffffffffffffffff1681526020019081526020015f20549050919050565b610ac7611544565b610ad05f6115cb565b565b60025f9054906101000a900473ffffffffffffffffffffffffffffffffffffffff1673ffffffffffffffffffffffffffffffffffffffff163373ffffffffffffffffffffffffffffffffffffffff1614610b61576040517f08c379a0000000000000000000000000000000000000000000000000000000008152600401610b5890611fbc565b60405180910390fd5b8460045f8281526020019081526020015f205f9054906101000a900460ff1615610bc0576040517f08c379a0000000000000000000000000000000000000000000000000000000008152600401610bb790612024565b60405180910390fd5b600360149054906101000a900467ffffffffffffffff1667ffffffffffffffff168567ffffffffffffffff1614610c2c576040517f08c379a0000000000000000000000000000000000000000000000000000000008152600401610c239061208c565b60405180910390fd5b60035f9054906101000a900473ffffffffffffffffffffffffffffffffffffffff1673ffffffffffffffffffffffffffffffffffffffff168273ffffffffffffffffffffffffffffffffffffffff1614610cbb576040517f08c379a0000000000000000000000000000000000000000000000000000000008152600401610cb290611bb8565b60405180910390fd5b5f8484810190610ccb91906121ab565b90505f73ffffffffffffffffffffffffffffffffffffffff16815f015173ffffffffffffffffffffffffffffffffffffffff1603610d3e576040517f08c379a0000000000000000000000000000000000000000000000000000000008152600401610d3590611caf565b60405180910390fd5b5f816020015111610d84576040517f08c379a0000000000000000000000000000000000000000000000000000000008152600401610d7b90611d17565b60405180910390fd5b8567ffffffffffffffff16816040015167ffffffffffffffff1614610dde576040517f08c379a0000000000000000000000000000000000000000000000000000000008152600401610dd590612220565b60405180910390fd5b86816060015114610e24576040517f08c379a0000000000000000000000000000000000000000000000000000000008152600401610e1b90612288565b60405180910390fd5b600160045f8981526020019081526020015f205f6101000a81548160ff02191690831515021790555060015f9054906101000a900473ffffffffffffffffffffffffffffffffffffffff1673ffffffffffffffffffffffffffffffffffffffff16630145317c825f01518360200151896040518463ffffffff1660e01b8152600401610eb293929190611e2c565b5f604051808303815f87803b158015610ec9575f80fd5b505af1158015610edb573d5f803e3d5ffd5b5050505060055f815480929190610ef190611e8e565b9190505550806020015160065f828254610f0b9190611ed5565b9250508190555060075f825f015173ffffffffffffffffffffffffffffffffffffffff1673ffffffffffffffffffffffffffffffffffffffff1681526020019081526020015f205f815480929190610f6290611e8e565b91905055508273ffffffffffffffffffffffffffffffffffffffff16815f015173ffffffffffffffffffffffffffffffffffffffff167f38c93ccbc9b695a742ebb95c67afef0bb69c6346bdbf73784bff158a52e116208360200151898b604051610fcf93929190611f17565b60405180910390a350505050505050565b600360149054906101000a900467ffffffffffffffff1681565b611002611544565b600160045f8381526020019081526020015f205f6101000a81548160ff02191690831515021790555050565b6004602052805f5260405f205f915054906101000a900460ff1681565b5f805f9054906101000a900473ffffffffffffffffffffffffffffffffffffffff16905090565b61107a611544565b5f73ffffffffffffffffffffffffffffffffffffffff168173ffffffffffffffffffffffffffffffffffffffff16036110e8576040517f08c379a00000000000000000000000000000000000000000000000000000000081526004016110df906122f0565b60405180910390fd5b5f60015f9054906101000a900473ffffffffffffffffffffffffffffffffffffffff1690508160015f6101000a81548173ffffffffffffffffffffffffffffffffffffffff021916908373ffffffffffffffffffffffffffffffffffffffff1602179055508173ffffffffffffffffffffffffffffffffffffffff168173ffffffffffffffffffffffffffffffffffffffff167f86fcf1f38573a557d47134199cf36acccaeff2b154d5ed0e34225c4fc6d9e65160405160405180910390a35050565b60025f9054906101000a900473ffffffffffffffffffffffffffffffffffffffff1681565b6111d8611544565b5f73ffffffffffffffffffffffffffffffffffffffff168273ffffffffffffffffffffffffffffffffffffffff1603611246576040517f08c379a000000000000000000000000000000000000000000000000000000000815260040161123d90612358565b60405180910390fd5b5f73ffffffffffffffffffffffffffffffffffffffff168373ffffffffffffffffffffffffffffffffffffffff160361136a57804710156112bc576040517f08c379a00000000000000000000000000000000000000000000000000000000081526004016112b3906123c0565b60405180910390fd5b5f8273ffffffffffffffffffffffffffffffffffffffff16826040516112e19061240b565b5f6040518083038185875af1925050503d805f811461131b576040519150601f19603f3d011682016040523d82523d5f602084013e611320565b606091505b5050905080611364576040517f08c379a000000000000000000000000000000000000000000000000000000000815260040161135b90612469565b60405180910390fd5b50611425565b8273ffffffffffffffffffffffffffffffffffffffff1663a9059cbb83836040518363ffffffff1660e01b81526004016113a5929190612487565b6020604051808303815f875af11580156113c1573d5f803e3d5ffd5b505050506040513d601f19601f820116820180604052508101906113e591906124d8565b611424576040517f08c379a000000000000000000000000000000000000000000000000000000000815260040161141b9061254d565b60405180910390fd5b5b505050565b60055481565b60035f9054906101000a900473ffffffffffffffffffffffffffffffffffffffff1681565b60065481565b6007602052805f5260405f205f915090505481565b60605f67ffffffffffffffff81111561148c5761148b6120be565b5b6040519080825280602002602001820160405280156114ba5781602001602082028036833780820191505090505b50905090565b6114c8611544565b5f73ffffffffffffffffffffffffffffffffffffffff168173ffffffffffffffffffffffffffffffffffffffff1603611538575f6040517f1e4fbdf700000000000000000000000000000000000000000000000000000000815260040161152f91906118f8565b60405180910390fd5b611541816115cb565b50565b61154c61168c565b73ffffffffffffffffffffffffffffffffffffffff1661156a61104b565b73ffffffffffffffffffffffffffffffffffffffff16146115c95761158d61168c565b6040517f118cdaa70000000000000000000000000000000000000000000000000000000081526004016115c091906118f8565b60405180910390fd5b565b5f805f9054906101000a900473ffffffffffffffffffffffffffffffffffffffff169050815f806101000a81548173ffffffffffffffffffffffffffffffffffffffff021916908373ffffffffffffffffffffffffffffffffffffffff1602179055508173ffffffffffffffffffffffffffffffffffffffff168173ffffffffffffffffffffffffffffffffffffffff167f8be0079c531659141344cd1fd0a4f28419497f9722a3daafe3b4186f6b6457e060405160405180910390a35050565b5f33905090565b5f604051905090565b5f80fd5b5f80fd5b5f73ffffffffffffffffffffffffffffffffffffffff82169050919050565b5f6116cd826116a4565b9050919050565b6116dd816116c3565b81146116e7575f80fd5b50565b5f813590506116f8816116d4565b92915050565b5f602082840312156117135761171261169c565b5b5f611720848285016116ea565b91505092915050565b5f819050919050565b61173b81611729565b8114611745575f80fd5b50565b5f8135905061175681611732565b92915050565b5f602082840312156117715761177061169c565b5b5f61177e84828501611748565b91505092915050565b5f8115159050919050565b61179b81611787565b82525050565b5f6020820190506117b45f830184611792565b92915050565b5f819050919050565b6117cc816117ba565b82525050565b5f6060820190506117e55f8301866117c3565b6117f260208301856117c3565b6117ff60408301846117c3565b949350505050565b5f67ffffffffffffffff82169050919050565b61182381611807565b811461182d575f80fd5b50565b5f8135905061183e8161181a565b92915050565b5f602082840312156118595761185861169c565b5b5f61186684828501611830565b91505092915050565b611878816117ba565b8114611882575f80fd5b50565b5f813590506118938161186f565b92915050565b5f805f606084860312156118b0576118af61169c565b5b5f6118bd868287016116ea565b93505060206118ce86828701611885565b92505060406118df86828701611830565b9150509250925092565b6118f2816116c3565b82525050565b5f60208201905061190b5f8301846118e9565b92915050565b5f6020820190506119245f8301846117c3565b92915050565b5f80fd5b5f80fd5b5f80fd5b5f8083601f84011261194b5761194a61192a565b5b8235905067ffffffffffffffff8111156119685761196761192e565b5b60208301915083600182028301111561198457611983611932565b5b9250929050565b5f805f805f608086880312156119a4576119a361169c565b5b5f6119b188828901611748565b95505060206119c288828901611830565b945050604086013567ffffffffffffffff8111156119e3576119e26116a0565b5b6119ef88828901611936565b93509350506060611a02888289016116ea565b9150509295509295909350565b611a1881611807565b82525050565b5f602082019050611a315f830184611a0f565b92915050565b5f805f60608486031215611a4e57611a4d61169c565b5b5f611a5b868287016116ea565b9350506020611a6c868287016116ea565b9250506040611a7d86828701611885565b9150509250925092565b5f81519050919050565b5f82825260208201905092915050565b5f819050602082019050919050565b611ab9816116c3565b82525050565b5f611aca8383611ab0565b60208301905092915050565b5f602082019050919050565b5f611aec82611a87565b611af68185611a91565b9350611b0183611aa1565b805f5b83811015611b31578151611b188882611abf565b9750611b2383611ad6565b925050600181019050611b04565b5085935050505092915050565b5f6020820190508181035f830152611b568184611ae2565b905092915050565b5f82825260208201905092915050565b7f496e76616c696420736f757263652073656e64657200000000000000000000005f82015250565b5f611ba2601583611b5e565b9150611bad82611b6e565b602082019050919050565b5f6020820190508181035f830152611bcf81611b96565b9050919050565b5f604082019050611be95f830185611a0f565b611bf66020830184611a0f565b9392505050565b7f496e76616c696420726f757465722061646472657373000000000000000000005f82015250565b5f611c31601683611b5e565b9150611c3c82611bfd565b602082019050919050565b5f6020820190508181035f830152611c5e81611c25565b9050919050565b7f496e76616c6964207573657220616464726573730000000000000000000000005f82015250565b5f611c99601483611b5e565b9150611ca482611c65565b602082019050919050565b5f6020820190508181035f830152611cc681611c8d565b9050919050565b7f496e76616c696420616d6f756e740000000000000000000000000000000000005f82015250565b5f611d01600e83611b5e565b9150611d0c82611ccd565b602082019050919050565b5f6020820190508181035f830152611d2e81611cf5565b9050919050565b5f8160601b9050919050565b5f611d4b82611d35565b9050919050565b5f611d5c82611d41565b9050919050565b611d74611d6f826116c3565b611d52565b82525050565b5f819050919050565b611d94611d8f826117ba565b611d7a565b82525050565b5f8160c01b9050919050565b5f611db082611d9a565b9050919050565b611dc8611dc382611807565b611da6565b82525050565b5f611dd98288611d63565b601482019150611de98287611d83565b602082019150611df98286611db7565b600882019150611e098285611d83565b602082019150611e198284611d83565b6020820191508190509695505050505050565b5f606082019050611e3f5f8301866118e9565b611e4c60208301856117c3565b611e596040830184611a0f565b949350505050565b7f4e487b71000000000000000000000000000000000000000000000000000000005f52601160045260245ffd5b5f611e98826117ba565b91507fffffffffffffffffffffffffffffffffffffffffffffffffffffffffffffffff8203611eca57611ec9611e61565b5b600182019050919050565b5f611edf826117ba565b9150611eea836117ba565b9250828201905080821115611f0257611f01611e61565b5b92915050565b611f1181611729565b82525050565b5f606082019050611f2a5f8301866117c3565b611f376020830185611a0f565b611f446040830184611f08565b949350505050565b7f4f6e6c79207472757374656420726f757465722063616e2063616c6c207468695f8201527f7300000000000000000000000000000000000000000000000000000000000000602082015250565b5f611fa6602183611b5e565b9150611fb182611f4c565b604082019050919050565b5f6020820190508181035f830152611fd381611f9a565b9050919050565b7f4d65737361676520616c72656164792070726f636573736564000000000000005f82015250565b5f61200e601983611b5e565b915061201982611fda565b602082019050919050565b5f6020820190508181035f83015261203b81612002565b9050919050565b7f496e76616c696420736f7572636520636861696e0000000000000000000000005f82015250565b5f612076601483611b5e565b915061208182612042565b602082019050919050565b5f6020820190508181035f8301526120a38161206a565b9050919050565b5f80fd5b5f601f19601f8301169050919050565b7f4e487b71000000000000000000000000000000000000000000000000000000005f52604160045260245ffd5b6120f4826120ae565b810181811067ffffffffffffffff82111715612113576121126120be565b5b80604052505050565b5f612125611693565b905061213182826120eb565b919050565b5f6080828403121561214b5761214a6120aa565b5b612155608061211c565b90505f612164848285016116ea565b5f83015250602061217784828501611885565b602083015250604061218b84828501611830565b604083015250606061219f84828501611748565b60608301525092915050565b5f608082840312156121c0576121bf61169c565b5b5f6121cd84828501612136565b91505092915050565b7f536f7572636520636861696e206d69736d6174636800000000000000000000005f82015250565b5f61220a601583611b5e565b9150612215826121d6565b602082019050919050565b5f6020820190508181035f830152612237816121fe565b9050919050565b7f4d657373616765204944206d69736d61746368000000000000000000000000005f82015250565b5f612272601383611b5e565b915061227d8261223e565b602082019050919050565b5f6020820190508181035f83015261229f81612266565b9050919050565b7f496e76616c696420657363726f772067616d65206164647265737300000000005f82015250565b5f6122da601b83611b5e565b91506122e5826122a6565b602082019050919050565b5f6020820190508181035f830152612307816122ce565b9050919050565b7f496e76616c696420726563697069656e740000000000000000000000000000005f82015250565b5f612342601183611b5e565b915061234d8261230e565b602082019050919050565b5f6020820190508181035f83015261236f81612336565b9050919050565b7f496e73756666696369656e742062616c616e63650000000000000000000000005f82015250565b5f6123aa601483611b5e565b91506123b582612376565b602082019050919050565b5f6020820190508181035f8301526123d78161239e565b9050919050565b5f81905092915050565b50565b5f6123f65f836123de565b9150612401826123e8565b5f82019050919050565b5f612415826123eb565b9150819050919050565b7f4e6174697665207472616e73666572206661696c6564000000000000000000005f82015250565b5f612453601683611b5e565b915061245e8261241f565b602082019050919050565b5f6020820190508181035f83015261248081612447565b9050919050565b5f60408201905061249a5f8301856118e9565b6124a760208301846117c3565b9392505050565b6124b781611787565b81146124c1575f80fd5b50565b5f815190506124d2816124ae565b92915050565b5f602082840312156124ed576124ec61169c565b5b5f6124fa848285016124c4565b91505092915050565b7f4552433230207472616e73666572206661696c656400000000000000000000005f82015250565b5f612537601583611b5e565b915061254282612503565b602082019050919050565b5f6020820190508181035f8301526125648161252b565b905091905056fea264697066735822122077acc8358a2b8c0a7312174690e908ab487862623fa5eea7d9a91792f5853be064736f6c63430008180033",
  "linkReferences": {},
  "deployedLinkReferences": {},
  "immutableReferences": {},
  "inputSourceName": "project/contracts/CCIPReceiver.sol",
  "buildInfoId": "solc-0_8_24-14ad38fa6e4fe0fd0cdf1963bdb1b600cdf4ea73"
}