{
  "_format": "hh3-artifact-1",
  "contractName": "EscrowGame",
  "sourceName": "contracts/EscrowGame.sol",
  "abi": [
    {
      "inputs": [
        {
          "internalType": "address",
          "name": "_oracle",
          "type": "address"
        },
        {
          "internalType": "address",
          "name": "_feeSink",
          "type": "address"
        },
        {
          "internalType": "uint16",
          "name": "_feeBps",
          "type": "uint16"
        }
      ],
      "stateMutability": "nonpayable",
      "type": "constructor"
    },
    {
      "inputs": [
        {
          "internalType": "address",
          "name": "owner",
          "type": "address"
        }
      ],
      "name": "OwnableInvalidOwner",
      "type": "error"
    },
    {
      "inputs": [
        {
          "internalType": "address",
          "name": "account",
          "type": "address"
        }
      ],
      "name": "OwnableUnauthorizedAccount",
      "type": "error"
    },
    {
      "inputs": [],
      "name": "ReentrancyGuardReentrantCall",
      "type": "error"
    },
    {
      "anonymous": false,
      "inputs": [
        {
          "indexed": true,
          "internalType": "uint256",
          "name": "roundId",
          "type": "uint256"
        },
        {
          "indexed": true,
          "internalType": "address",
          "name": "user",
          "type": "address"
        },
        {
          "indexed": false,
          "internalType": "uint8",
          "name": "side",
          "type": "uint8"
        },
        {
          "indexed": false,
          "internalType": "uint256",
          "name": "amount",
          "type": "uint256"
        }
      ],
      "name": "BetPlaced",
      "type": "event"
    },
    {
      "anonymous": false,
      "inputs": [
        {
          "indexed": true,
          "internalType": "uint256",
          "name": "roundId",
          "type": "uint256"
        },
        {
          "indexed": true,
          "internalType": "address",
          "name": "user",
          "type": "address"
        },
        {
          "indexed": false,
          "internalType": "uint256",
          "name": "amount",
          "type": "uint256"
        }
      ],
      "name": "Claimed",
      "type": "event"
    },
    {
      "anonymous": false,
      "inputs": [
        {
          "indexed": true,
          "internalType": "address",
          "name": "user",
          "type": "address"
        },
        {
          "indexed": false,
          "internalType": "uint256",
          "name": "amount",
          "type": "uint256"
        },
        {
          "indexed": false,
          "internalType": "uint64",
          "name": "sourceChain",
          "type": "uint64"
        }
      ],
      "name": "CreditAdded",
      "type": "event"
    },
    {
      "anonymous": false,
      "inputs": [
        {
          "indexed": true,
          "internalType": "uint256",
          "name": "roundId",
          "type": "uint256"
        },
        {
          "indexed": false,
          "internalType": "uint256",
          "name": "feeAmount",
          "type": "uint256"
        }
      ],
      "name": "FeeTaken",
      "type": "event"
    },
    {
      "anonymous": false,
      "inputs": [
        {
          "indexed": true,
          "internalType": "address",
          "name": "previousOwner",
          "type": "address"
        },
        {
          "indexed": true,
          "internalType": "address",
          "name": "newOwner",
          "type": "address"
        }
      ],
      "name": "OwnershipTransferred",
      "type": "event"
    },
    {
      "anonymous": false,
      "inputs": [
        {
          "indexed": true,
          "internalType": "uint256",
          "name": "id",
          "type": "uint256"
        },
        {
          "indexed": true,
          "internalType": "bytes32",
          "name": "market",
          "type": "bytes32"
        },
        {
          "indexed": false,
          "internalType": "uint64",
          "name": "startTs",
          "type": "uint64"
        },
        {
          "indexed": false,
          "internalType": "uint64",
          "name": "lockTs",
          "type": "uint64"
        },
        {
          "indexed": false,
          "internalType": "uint64",
          "name": "resolveTs",
          "type": "uint64"
        },
        {
          "indexed": false,
          "internalType": "int64",
          "name": "refPrice",
          "type": "int64"
        }
      ],
      "name": "RoundCreated",
      "type": "event"
    },
    {
      "anonymous": false,
      "inputs": [
        {
          "indexed": true,
          "internalType": "uint256",
          "name": "roundId",
          "type": "uint256"
        },
        {
          "indexed": false,
          "internalType": "uint8",
          "name": "outcome",
          "type": "uint8"
        },
        {
          "indexed": false,
          "internalType": "int64",
          "name": "settlePrice",
          "type": "int64"
        }
      ],
      "name": "RoundResolved",
      "type": "event"
    },
    {
      "inputs": [],
      "name": "BASIS_POINTS",
      "outputs": [
        {
          "internalType": "uint256",
          "name": "",
          "type": "uint256"
        }
      ],
      "stateMutability": "view",
      "type": "function"
    },
    {
      "inputs": [],
      "name": "LOCK_GAP_SECONDS",
      "outputs": [
        {
          "internalType": "uint64",
          "name": "",
          "type": "uint64"
        }
      ],
      "stateMutability": "view",
      "type": "function"
    },
    {
      "inputs": [],
      "name": "MAX_BET",
      "outputs": [
        {
          "internalType": "uint256",
          "name": "",
          "type": "uint256"
        }
      ],
      "stateMutability": "view",
      "type": "function"
    },
    {
      "inputs": [],
      "name": "MAX_PRICE_AGE",
      "outputs": [
        {
          "internalType": "uint256",
          "name": "",
          "type": "uint256"
        }
      ],
      "stateMutability": "view",
      "type": "function"
    },
    {
      "inputs": [],
      "name": "ROUND_SECONDS",
      "outputs": [
        {
          "internalType": "uint64",
          "name": "",
          "type": "uint64"
        }
      ],
      "stateMutability": "view",
      "type": "function"
    },
    {
      "inputs": [
        {
          "internalType": "address",
          "name": "user",
          "type": "address"
        },
        {
          "internalType": "uint256",
          "name": "amount",
          "type": "uint256"
        },
        {
          "internalType": "uint64",
          "name": "sourceChain",
          "type": "uint64"
        }
      ],
      "name": "addInternalCredits",
      "outputs": [],
      "stateMutability": "nonpayable",
      "type": "function"
    },
    {
      "inputs": [
        {
          "internalType": "uint256",
          "name": "roundId",
          "type": "uint256"
        }
      ],
      "name": "betDown",
      "outputs": [],
      "stateMutability": "payable",
      "type": "function"
    },
    {
      "inputs": [
        {
          "internalType": "uint256",
          "name": "roundId",
          "type": "uint256"
        }
      ],
      "name": "betUp",
      "outputs": [],
      "stateMutability": "payable",
      "type": "function"
    },
    {
      "inputs": [],
      "name": "ccipReceiver",
      "outputs": [
        {
          "internalType": "address",
          "name": "",
          "type": "address"
        }
      ],
      "stateMutability": "view",
      "type": "function"
    },
    {
      "inputs": [
        {
          "internalType": "uint256",
          "name": "roundId",
          "type": "uint256"
        }
      ],
      "name": "claim",
      "outputs": [],
      "stateMutability": "nonpayable",
      "type": "function"
    },
    {
      "inputs": [
        {
          "internalType": "bytes32",
          "name": "market",
          "type": "bytes32"
        },
        {
          "internalType": "uint64",
          "name": "startTs",
          "type": "uint64"
        },
        {
          "internalType": "uint64",
          "name": "lockTs",
          "type": "uint64"
        },
        {
          "internalType": "uint64",
          "name": "resolveTs",
          "type": "uint64"
        }
      ],
      "name": "createRound",
      "outputs": [],
      "stateMutability": "nonpayable",
      "type": "function"
    },
    {
      "inputs": [
        {
          "internalType": "bytes32",
          "name": "market",
          "type": "bytes32"
        },
        {
          "internalType": "uint64",
          "name": "startTs",
          "type": "uint64"
        }
      ],
      "name": "createRound60",
      "outputs": [],
      "stateMutability": "nonpayable",
      "type": "function"
    },
    {
      "inputs": [
        {
          "internalType": "bytes32",
          "name": "market",
          "type": "bytes32"
        }
      ],
      "name": "createRoundNow60",
      "outputs": [],
      "stateMutability": "nonpayable",
      "type": "function"
    },
    {
      "inputs": [
        {
          "internalType": "uint256",
          "name": "",
          "type": "uint256"
        },
        {
          "internalType": "address",
          "name": "",
          "type": "address"
        }
      ],
      "name": "downStakes",
      "outputs": [
        {
          "internalType": "uint256",
          "name": "",
          "type": "uint256"
        }
      ],
      "stateMutability": "view",
      "type": "function"
    },
    {
      "inputs": [],
      "name": "feeBps",
      "outputs": [
        {
          "internalType": "uint16",
          "name": "",
          "type": "uint16"
        }
      ],
      "stateMutability": "view",
      "type": "function"
    },
    {
      "inputs": [],
      "name": "feeSink",
      "outputs": [
        {
          "internalType": "address",
          "name": "",
          "type": "address"
        }
      ],
      "stateMutability": "view",
      "type": "function"
    },
    {
      "inputs": [],
      "name": "getContractBalance",
      "outputs": [
        {
          "internalType": "uint256",
          "name": "",
          "type": "uint256"
        }
      ],
      "stateMutability": "view",
      "type": "function"
    },
    {
      "inputs": [
        {
          "internalType": "uint256",
          "name": "roundId",
          "type": "uint256"
        }
      ],
      "name": "getRound",
      "outputs": [
        {
          "components": [
            {
              "internalType": "uint256",
              "name": "id",
              "type": "uint256"
            },
            {
              "internalType": "bytes32",
              "name": "market",
              "type": "bytes32"
            },
            {
              "internalType": "uint64",
              "name": "startTs",
              "type": "uint64"
            },
            {
              "internalType": "uint64",
              "name": "lockTs",
              "type": "uint64"
            },
            {
              "internalType": "uint64",
              "name": "resolveTs",
              "type": "uint64"
            },
            {
              "internalType": "int64",
              "name": "refPrice",
              "type": "int64"
            },
            {
              "internalType": "int64",
              "name": "settlePrice",
              "type": "int64"
            },
            {
              "internalType": "uint256",
              "name": "upPool",
              "type": "uint256"
            },
            {
              "internalType": "uint256",
              "name": "downPool",
              "type": "uint256"
            },
            {
              "internalType": "bool",
              "name": "resolved",
              "type": "bool"
            },
            {
              "internalType": "bool",
              "name": "feePaid",
              "type": "bool"
            },
            {
              "internalType": "uint8",
              "name": "outcome",
              "type": "uint8"
            }
          ],
          "internalType": "struct EscrowGame.Round",
          "name": "",
          "type": "tuple"
        }
      ],
      "stateMutability": "view",
      "type": "function"
    },
    {
      "inputs": [
        {
          "internalType": "uint256",
          "name": "roundId",
          "type": "uint256"
        },
        {
          "internalType": "address",
          "name": "user",
          "type": "address"
        }
      ],
      "name": "getUserStakes",
      "outputs": [
        {
          "internalType": "uint256",
          "name": "upStake",
          "type": "uint256"
        },
        {
          "internalType": "uint256",
          "name": "downStake",
          "type": "uint256"
        }
      ],
      "stateMutability": "view",
      "type": "function"
    },
    {
      "inputs": [
        {
          "internalType": "address",
          "name": "",
          "type": "address"
        }
      ],
      "name": "internalCredits",
      "outputs": [
        {
          "internalType": "uint256",
          "name": "",
          "type": "uint256"
        }
      ],
      "stateMutability": "view",
      "type": "function"
    },
    {
      "inputs": [],
      "name": "nextRoundId",
      "outputs": [
        {
          "internalType": "uint256",
          "name": "",
          "type": "uint256"
        }
      ],
      "stateMutability": "view",
      "type": "function"
    },
    {
      "inputs": [],
      "name": "oracle",
      "outputs": [
        {
          "internalType": "address",
          "name": "",
          "type": "address"
        }
      ],
      "stateMutability": "view",
      "type": "function"
    },
    {
      "inputs": [],
      "name": "owner",
      "outputs": [
        {
          "internalType": "address",
          "name": "",
          "type": "address"
        }
      ],
      "stateMutability": "view",
      "type": "function"
    },
    {
      "inputs": [
        {
          "internalType": "address",
          "name": "to",
          "type": "address"
        },
        {
          "internalType": "uint256",
          "name": "amount",
          "type": "uint256"
        }
      ],
      "name": "recoverExcess",
      "outputs": [],
      "stateMutability": "nonpayable",
      "type": "function"
    },
    {
      "inputs": [],
      "name": "renounceOwnership",
      "outputs": [],
      "stateMutability": "nonpayable",
      "type": "function"
    },
    {
      "inputs": [
        {
          "internalType": "uint256",
          "name": "roundId",
          "type": "uint256"
        }
      ],
      "name": "resolve",
      "outputs": [],
      "stateMutability": "nonpayable",
      "type": "function"
    },
    {
      "inputs": [
        {
          "internalType": "uint256",
          "name": "roundId",
          "type": "uint256"
        }
      ],
      "name": "roundStatus",
      "outputs": [
        {
          "internalType": "uint8",
          "name": "",
          "type": "uint8"
        }
      ],
      "stateMutability": "view",
      "type": "function"
    },
    {
      "inputs": [
        {
          "internalType": "uint256",
          "name": "",
          "type": "uint256"
        }
      ],
      "name": "rounds",
      "outputs": [
        {
          "internalType": "uint256",
          "name": "id",
          "type": "uint256"
        },
        {
          "internalType": "bytes32",
          "name": "market",
          "type": "bytes32"
        },
        {
          "internalType": "uint64",
          "name": "startTs",
          "type": "uint64"
        },
        {
          "internalType": "uint64",
          "name": "lockTs",
          "type": "uint64"
        },
        {
          "internalType": "uint64",
          "name": "resolveTs",
          "type": "uint64"
        },
        {
          "internalType": "int64",
          "name": "refPrice",
          "type": "int64"
        },
        {
          "internalType": "int64",
          "name": "settlePrice",
          "type": "int64"
        },
        {
          "internalType": "uint256",
          "name": "upPool",
          "type": "uint256"
        },
        {
          "internalType": "uint256",
          "name": "downPool",
          "type": "uint256"
        },
        {
          "internalType": "bool",
          "name": "resolved",
          "type": "bool"
        },
        {
          "internalType": "bool",
          "name": "feePaid",
          "type": "bool"
        },
        {
          "internalType": "uint8",
          "name": "outcome",
          "type": "uint8"
        }
      ],
      "stateMutability": "view",
      "type": "function"
    },
    {
      "inputs": [
        {
          "internalType": "address",
          "name": "_ccipReceiver",
          "type": "address"
        }
      ],
      "name": "setCCIPReceiver",
      "outputs": [],
      "stateMutability": "nonpayable",
      "type": "function"
    },
    {
      "inputs": [
        {
          "internalType": "address",
          "name": "_feeSink",
          "type": "address"
        },
        {
          "internalType": "uint16",
          "name": "_feeBps",
          "type": "uint16"
        }
      ],
      "name": "setFees",
      "outputs": [],
      "stateMutability": "nonpayable",
      "type": "function"
    },
    {
      "inputs": [
        {
          "internalType": "address",
          "name": "_oracle",
          "type": "address"
        }
      ],
      "name": "setOracle",
      "outputs": [],
      "stateMutability": "nonpayable",
      "type": "function"
    },
    {
      "inputs": [
        {
          "internalType": "address",
          "name": "newOwner",
          "type": "address"
        }
      ],
      "name": "transferOwnership",
      "outputs": [],
      "stateMutability": "nonpayable",
      "type": "function"
    },
    {
      "inputs": [
        {
          "internalType": "uint256",
          "name": "",
          "type": "uint256"
        },
        {
          "internalType": "address",
          "name": "",
          "type": "address"
        }
      ],
      "name": "upStakes",
      "outputs": [
        {
          "internalType": "uint256",
          "name": "",
          "type": "uint256"
        }
      ],
      "stateMutability": "view",
      "type": "function"
    },
    {
      "inputs": [
        {
          "internalType": "uint256",
          "name": "amount",
          "type": "uint256"
        }
      ],
      "name": "withdrawInternalCredits",
      "outputs": [],
      "stateMutability": "nonpayable",
      "type": "function"
    },
    {
      "stateMutability": "payable",
      "type": "receive"
    }
  ],
  "bytecode": "0x608060405234801562000010575f80fd5b5060405162004eaf38038062004eaf8339818101604052810190620000369190620003fb565b3360015f819055505f73ffffffffffffffffffffffffffffffffffffffff168173ffffffffffffffffffffffffffffffffffffffff1603620000b1575f6040517f1e4fbdf7000000000000000000000000000000000000000000000000000000008152600401620000a8919062000465565b60405180910390fd5b620000c2816200029760201b60201c565b505f73ffffffffffffffffffffffffffffffffffffffff168373ffffffffffffffffffffffffffffffffffffffff160362000134576040517f08c379a00000000000000000000000000000000000000000000000000000000081526004016200012b90620004de565b60405180910390fd5b5f73ffffffffffffffffffffffffffffffffffffffff168273ffffffffffffffffffffffffffffffffffffffff1603620001a5576040517f08c379a00000000000000000000000000000000000000000000000000000000081526004016200019c906200054c565b60405180910390fd5b6101f48161ffff161115620001f1576040517f08c379a0000000000000000000000000000000000000000000000000000000008152600401620001e890620005ba565b60405180910390fd5b8260065f6101000a81548173ffffffffffffffffffffffffffffffffffffffff021916908373ffffffffffffffffffffffffffffffffffffffff1602179055508160075f6101000a81548173ffffffffffffffffffffffffffffffffffffffff021916908373ffffffffffffffffffffffffffffffffffffffff16021790555080600760146101000a81548161ffff021916908361ffff160217905550505050620005da565b5f60015f9054906101000a900473ffffffffffffffffffffffffffffffffffffffff1690508160015f6101000a81548173ffffffffffffffffffffffffffffffffffffffff021916908373ffffffffffffffffffffffffffffffffffffffff1602179055508173ffffffffffffffffffffffffffffffffffffffff168173ffffffffffffffffffffffffffffffffffffffff167f8be0079c531659141344cd1fd0a4f28419497f9722a3daafe3b4186f6b6457e060405160405180910390a35050565b5f80fd5b5f73ffffffffffffffffffffffffffffffffffffffff82169050919050565b5f62000389826200035e565b9050919050565b6200039b816200037d565b8114620003a6575f80fd5b50565b5f81519050620003b98162000390565b92915050565b5f61ffff82169050919050565b620003d781620003bf565b8114620003e2575f80fd5b50565b5f81519050620003f581620003cc565b92915050565b5f805f606084860312156200041557620004146200035a565b5b5f6200042486828701620003a9565b93505060206200043786828701620003a9565b92505060406200044a86828701620003e5565b9150509250925092565b6200045f816200037d565b82525050565b5f6020820190506200047a5f83018462000454565b92915050565b5f82825260208201905092915050565b7f496e76616c6964206f7261636c652061646472657373000000000000000000005f82015250565b5f620004c660168362000480565b9150620004d38262000490565b602082019050919050565b5f6020820190508181035f830152620004f781620004b8565b9050919050565b7f496e76616c6964206665652073696e6b206164647265737300000000000000005f82015250565b5f6200053460188362000480565b91506200054182620004fe565b602082019050919050565b5f6020820190508181035f830152620005658162000526565b9050919050565b7f46656520746f6f206869676800000000000000000000000000000000000000005f82015250565b5f620005a2600c8362000480565b9150620005af826200056c565b602082019050919050565b5f6020820190508181035f830152620005d38162000594565b9050919050565b6148c780620005e85f395ff3fe6080604052600436106101fc575f3560e01c80637adbf9731161010c578063a33035dd1161009f578063e1f1c4a71161006e578063e1f1c4a7146106ff578063e1fe393614610729578063e35154a514610751578063e82cc9e31461078d578063f2fde38b146107b557610203565b8063a33035dd14610649578063a49a011d14610671578063b24fede7146106ad578063b8d8dbd1146106d557610203565b80638c65c81f116100db5780638c65c81f146105725780638da5cb5b146105b95780638f1327c0146105e35780639d7f7e861461061f57610203565b80637adbf973146104cc5780637dc0d1d0146104f45780637e95b5231461051e5780638b3e04761461054857610203565b80634b38474d1161018f5780635e457cf81161015e5780635e457cf81461040a5780636b8f7d6f146104265780636f9fb98a14610462578063715018a61461048c57806379039ed2146104a257610203565b80634b38474d146103545780634ea010611461037e5780634f896d4f146103ba578063594f518d146103e257610203565b8063379607f5116101cb578063379607f5146102be5780633c743dd6146102e65780634002eda61461030e57806347d2a6c71461033857610203565b80630145317c1461020757806314ce783d1461022f57806322a1f7831461026c57806324a9d8531461029457610203565b3661020357005b5f80fd5b348015610212575f80fd5b5061022d60048036038101906102289190613118565b6107dd565b005b34801561023a575f80fd5b5061025560048036038101906102509190613168565b610914565b6040516102639291906131b5565b60405180910390f35b348015610277575f80fd5b50610292600480360381019061028d91906131dc565b6109bb565b005b34801561029f575f80fd5b506102a8610a06565b6040516102b59190613223565b60405180910390f35b3480156102c9575f80fd5b506102e460048036038101906102df919061323c565b610a1a565b005b3480156102f1575f80fd5b5061030c6004803603810190610307919061329a565b610eca565b005b348015610319575f80fd5b50610322610f5b565b60405161032f91906132d8565b60405180910390f35b610352600480360381019061034d919061323c565b610f61565b005b34801561035f575f80fd5b506103686113b7565b6040516103759190613300565b60405180910390f35b348015610389575f80fd5b506103a4600480360381019061039f91906131dc565b6113dc565b6040516103b191906132d8565b60405180910390f35b3480156103c5575f80fd5b506103e060048036038101906103db919061323c565b6113f1565b005b3480156103ed575f80fd5b5061040860048036038101906104039190613319565b611a23565b005b610424600480360381019061041f919061323c565b611c02565b005b348015610431575f80fd5b5061044c60048036038101906104479190613168565b612058565b60405161045991906132d8565b60405180910390f35b34801561046d575f80fd5b50610476612078565b60405161048391906132d8565b60405180910390f35b348015610497575f80fd5b506104a061207f565b005b3480156104ad575f80fd5b506104b6612092565b6040516104c39190613300565b60405180910390f35b3480156104d7575f80fd5b506104f260048036038101906104ed91906131dc565b6120b7565b005b3480156104ff575f80fd5b50610508612170565b6040516105159190613300565b60405180910390f35b348015610529575f80fd5b50610532612195565b60405161053f91906132d8565b60405180910390f35b348015610553575f80fd5b5061055c6121a2565b6040516105699190613366565b60405180910390f35b34801561057d575f80fd5b506105986004803603810190610593919061323c565b6121a7565b6040516105b09c9b9a999897969594939291906133de565b60405180910390f35b3480156105c4575f80fd5b506105cd61227d565b6040516105da9190613300565b60405180910390f35b3480156105ee575f80fd5b506106096004803603810190610604919061323c565b6122a5565b60405161061691906135e4565b60405180910390f35b34801561062a575f80fd5b5061063361245c565b60405161064091906132d8565b60405180910390f35b348015610654575f80fd5b5061066f600480360381019061066a919061323c565b612461565b005b34801561067c575f80fd5b5061069760048036038101906106929190613168565b612633565b6040516106a491906132d8565b60405180910390f35b3480156106b8575f80fd5b506106d360048036038101906106ce91906135fe565b612653565b005b3480156106e0575f80fd5b506106e9612691565b6040516106f69190613366565b60405180910390f35b34801561070a575f80fd5b50610713612696565b60405161072091906132d8565b60405180910390f35b348015610734575f80fd5b5061074f600480360381019061074a9190613653565b61269c565b005b34801561075c575f80fd5b506107776004803603810190610772919061323c565b6127bc565b6040516107849190613691565b60405180910390f35b348015610798575f80fd5b506107b360048036038101906107ae91906136aa565b6128dd565b005b3480156107c0575f80fd5b506107db60048036038101906107d691906131dc565b612da5565b005b60085f9054906101000a900473ffffffffffffffffffffffffffffffffffffffff1673ffffffffffffffffffffffffffffffffffffffff163373ffffffffffffffffffffffffffffffffffffffff161461086c576040517f08c379a000000000000000000000000000000000000000000000000000000000815260040161086390613768565b60405180910390fd5b8160095f8573ffffffffffffffffffffffffffffffffffffffff1673ffffffffffffffffffffffffffffffffffffffff1681526020019081526020015f205f8282546108b891906137b3565b925050819055508273ffffffffffffffffffffffffffffffffffffffff167f746de67305abd0a621888f2328e7be621d09055e22d82d87cf71d544285feecc83836040516109079291906137e6565b60405180910390a2505050565b5f8060035f8581526020019081526020015f205f8473ffffffffffffffffffffffffffffffffffffffff1673ffffffffffffffffffffffffffffffffffffffff1681526020019081526020015f205460045f8681526020019081526020015f205f8573ffffffffffffffffffffffffffffffffffffffff1673ffffffffffffffffffffffffffffffffffffffff1681526020019081526020015f2054915091509250929050565b6109c3612e29565b8060085f6101000a81548173ffffffffffffffffffffffffffffffffffffffff021916908373ffffffffffffffffffffffffffffffffffffffff16021790555050565b600760149054906101000a900461ffff1681565b610a22612eb0565b806005548110610a67576040517f08c379a0000000000000000000000000000000000000000000000000000000008152600401610a5e90613857565b60405180910390fd5b5f60025f8481526020019081526020015f209050806006015f9054906101000a900460ff16610acb576040517f08c379a0000000000000000000000000000000000000000000000000000000008152600401610ac2906138bf565b60405180910390fd5b5f60035f8581526020019081526020015f205f3373ffffffffffffffffffffffffffffffffffffffff1673ffffffffffffffffffffffffffffffffffffffff1681526020019081526020015f205490505f60045f8681526020019081526020015f205f3373ffffffffffffffffffffffffffffffffffffffff1673ffffffffffffffffffffffffffffffffffffffff1681526020019081526020015f205490505f8183610b7891906137b3565b90505f8111610bbc576040517f08c379a0000000000000000000000000000000000000000000000000000000008152600401610bb390613927565b60405180910390fd5b5f60038560060160029054906101000a900460ff1660ff1603610be157819050610d16565b5f60018660060160029054906101000a900460ff1660ff1614610c08578560050154610c0e565b85600401545b90505f60018760060160029054906101000a900460ff1660ff1614610c37578660040154610c3d565b86600501545b90505f8211610c81576040517f08c379a0000000000000000000000000000000000000000000000000000000008152600401610c789061398f565b60405180910390fd5b5f8183610c8e91906137b3565b90505f612710600760149054906101000a900461ffff1661ffff1683610cb491906139ad565b610cbe9190613a1b565b90505f8183610ccd9190613a4b565b90505f60018b60060160029054906101000a900460ff1660ff1614610cf25788610cf4565b895b9050858282610d0391906139ad565b610d0d9190613a1b565b96505050505050505b5f60035f8981526020019081526020015f205f3373ffffffffffffffffffffffffffffffffffffffff1673ffffffffffffffffffffffffffffffffffffffff1681526020019081526020015f20819055505f60045f8981526020019081526020015f205f3373ffffffffffffffffffffffffffffffffffffffff1673ffffffffffffffffffffffffffffffffffffffff1681526020019081526020015f20819055505f811115610eb9575f3373ffffffffffffffffffffffffffffffffffffffff1682604051610de590613aab565b5f6040518083038185875af1925050503d805f8114610e1f576040519150601f19603f3d011682016040523d82523d5f602084013e610e24565b606091505b5050905080610e68576040517f08c379a0000000000000000000000000000000000000000000000000000000008152600401610e5f90613b09565b60405180910390fd5b3373ffffffffffffffffffffffffffffffffffffffff16887f4ec90e965519d92681267467f775ada5bd214aa92c0dc93d90a5e880ce9ed02684604051610eaf91906132d8565b60405180910390a3505b505050505050610ec7612ef4565b50565b610ed2612e29565b4267ffffffffffffffff168167ffffffffffffffff161015610f29576040517f08c379a0000000000000000000000000000000000000000000000000000000008152600401610f2090613b71565b60405180910390fd5b5f603c82610f379190613b8f565b90505f600a82610f479190613bca565b9050610f55848483856128dd565b50505050565b60055481565b610f69612eb0565b806005548110610fae576040517f08c379a0000000000000000000000000000000000000000000000000000000008152600401610fa590613857565b60405180910390fd5b8160025f8281526020019081526020015f206006015f9054906101000a900460ff1615611010576040517f08c379a000000000000000000000000000000000000000000000000000000000815260040161100790613c4f565b60405180910390fd5b5f60025f8581526020019081526020015f209050806002015f9054906101000a900467ffffffffffffffff1667ffffffffffffffff16421015611088576040517f08c379a000000000000000000000000000000000000000000000000000000000815260040161107f90613cb7565b60405180910390fd5b8060020160089054906101000a900467ffffffffffffffff1667ffffffffffffffff1642106110ec576040517f08c379a00000000000000000000000000000000000000000000000000000000081526004016110e390613d1f565b60405180910390fd5b5f341161112e576040517f08c379a000000000000000000000000000000000000000000000000000000000815260040161112590613d87565b60405180910390fd5b683635c9adc5dea0000034111561117a576040517f08c379a000000000000000000000000000000000000000000000000000000000815260040161117190613def565b60405180910390fd5b5f8160020160189054906101000a900460070b60070b1480156111be5750806002015f9054906101000a900467ffffffffffffffff1667ffffffffffffffff164210155b156112db575f60065f9054906101000a900473ffffffffffffffffffffffffffffffffffffffff1673ffffffffffffffffffffffffffffffffffffffff16635e8f4816836001015460b46040518363ffffffff1660e01b8152600401611225929190613e0d565b6040805180830381865afa15801561123f573d5f803e3d5ffd5b505050506040513d601f19601f820116820180604052508101906112639190613e88565b5090505f8160070b136112ab576040517f08c379a00000000000000000000000000000000000000000000000000000000081526004016112a290613f10565b60405180910390fd5b808260020160186101000a81548167ffffffffffffffff021916908360070b67ffffffffffffffff160217905550505b3460045f8681526020019081526020015f205f3373ffffffffffffffffffffffffffffffffffffffff1673ffffffffffffffffffffffffffffffffffffffff1681526020019081526020015f205f82825461133691906137b3565b9250508190555034816005015f82825461135091906137b3565b925050819055503373ffffffffffffffffffffffffffffffffffffffff16847f4f1eed5e863a822b0f9eb960dfdab2cc5a99beec4b191f2a7a9c7e28e5a155246002346040516113a1929190613f70565b60405180910390a35050506113b4612ef4565b50565b60075f9054906101000a900473ffffffffffffffffffffffffffffffffffffffff1681565b6009602052805f5260405f205f915090505481565b806005548110611436576040517f08c379a000000000000000000000000000000000000000000000000000000000815260040161142d90613857565b60405180910390fd5b8160025f8281526020019081526020015f206006015f9054906101000a900460ff1615611498576040517f08c379a000000000000000000000000000000000000000000000000000000000815260040161148f90613c4f565b60405180910390fd5b5f60025f8581526020019081526020015f2090508060020160109054906101000a900467ffffffffffffffff1667ffffffffffffffff16421015611511576040517f08c379a000000000000000000000000000000000000000000000000000000000815260040161150890613fe1565b60405180910390fd5b5f8160020160189054906101000a900460070b60070b036115d45760038160060160026101000a81548160ff021916908360ff1602179055505f816003015f6101000a81548167ffffffffffffffff021916908360070b67ffffffffffffffff1602179055506001816006015f6101000a81548160ff021916908315150217905550837f726a84ca9508bc683f27c8c61d384dbf8c12a5d70a30e2ba5cd39cd9fdf0c0e560035f6040516115c6929190614071565b60405180910390a250611a1e565b5f60065f9054906101000a900473ffffffffffffffffffffffffffffffffffffffff1673ffffffffffffffffffffffffffffffffffffffff16635e8f4816836001015460b46040518363ffffffff1660e01b8152600401611636929190613e0d565b6040805180830381865afa158015611650573d5f803e3d5ffd5b505050506040513d601f19601f820116820180604052508101906116749190613e88565b5090505f8160070b136116bc576040517f08c379a00000000000000000000000000000000000000000000000000000000081526004016116b3906140e2565b60405180910390fd5b80826003015f6101000a81548167ffffffffffffffff021916908360070b67ffffffffffffffff1602179055508160020160189054906101000a900460070b60070b8160070b131561172b5760018260060160026101000a81548160ff021916908360ff16021790555061178d565b8160020160189054906101000a900460070b60070b8160070b121561176d5760028260060160026101000a81548160ff021916908360ff16021790555061178c565b60038260060160026101000a81548160ff021916908360ff1602179055505b5b60018260060160029054906101000a900460ff1660ff161480156117b457505f8260040154145b806117e2575060028260060160029054906101000a900460ff1660ff161480156117e157505f8260050154145b5b156118065760038260060160026101000a81548160ff021916908360ff1602179055505b60018260060160029054906101000a900460ff1660ff16148061183d575060028260060160029054906101000a900460ff1660ff16145b156119b4575f8260050154836004015461185791906137b3565b90505f612710600760149054906101000a900461ffff1661ffff168361187d91906139ad565b6118879190613a1b565b90505f8111156119b1575f60075f9054906101000a900473ffffffffffffffffffffffffffffffffffffffff1673ffffffffffffffffffffffffffffffffffffffff16826040516118d790613aab565b5f6040518083038185875af1925050503d805f8114611911576040519150601f19603f3d011682016040523d82523d5f602084013e611916565b606091505b505090508061195a576040517f08c379a00000000000000000000000000000000000000000000000000000000081526004016119519061414a565b60405180910390fd5b60018560060160016101000a81548160ff021916908315150217905550877fb4d6a97bdd3b0279677829534375db2695a0fb46143b58f29faeead6ccf6f9cd836040516119a791906132d8565b60405180910390a2505b50505b6001826006015f6101000a81548160ff021916908315150217905550847f726a84ca9508bc683f27c8c61d384dbf8c12a5d70a30e2ba5cd39cd9fdf0c0e58360060160029054906101000a900460ff1683604051611a13929190614168565b60405180910390a250505b505050565b611a2b612e29565b5f73ffffffffffffffffffffffffffffffffffffffff168273ffffffffffffffffffffffffffffffffffffffff1603611a99576040517f08c379a0000000000000000000000000000000000000000000000000000000008152600401611a90906141d9565b60405180910390fd5b47811115611adc576040517f08c379a0000000000000000000000000000000000000000000000000000000008152600401611ad390614241565b60405180910390fd5b5f6005541115611b555760025f6001600554611af89190613a4b565b81526020019081526020015f206006015f9054906101000a900460ff16611b54576040517f08c379a0000000000000000000000000000000000000000000000000000000008152600401611b4b906142a9565b60405180910390fd5b5b5f8273ffffffffffffffffffffffffffffffffffffffff1682604051611b7a90613aab565b5f6040518083038185875af1925050503d805f8114611bb4576040519150601f19603f3d011682016040523d82523d5f602084013e611bb9565b606091505b5050905080611bfd576040517f08c379a0000000000000000000000000000000000000000000000000000000008152600401611bf490614311565b60405180910390fd5b505050565b611c0a612eb0565b806005548110611c4f576040517f08c379a0000000000000000000000000000000000000000000000000000000008152600401611c4690613857565b60405180910390fd5b8160025f8281526020019081526020015f206006015f9054906101000a900460ff1615611cb1576040517f08c379a0000000000000000000000000000000000000000000000000000000008152600401611ca890613c4f565b60405180910390fd5b5f60025f8581526020019081526020015f209050806002015f9054906101000a900467ffffffffffffffff1667ffffffffffffffff16421015611d29576040517f08c379a0000000000000000000000000000000000000000000000000000000008152600401611d2090613cb7565b60405180910390fd5b8060020160089054906101000a900467ffffffffffffffff1667ffffffffffffffff164210611d8d576040517f08c379a0000000000000000000000000000000000000000000000000000000008152600401611d8490613d1f565b60405180910390fd5b5f3411611dcf576040517f08c379a0000000000000000000000000000000000000000000000000000000008152600401611dc690613d87565b60405180910390fd5b683635c9adc5dea00000341115611e1b576040517f08c379a0000000000000000000000000000000000000000000000000000000008152600401611e1290613def565b60405180910390fd5b5f8160020160189054906101000a900460070b60070b148015611e5f5750806002015f9054906101000a900467ffffffffffffffff1667ffffffffffffffff164210155b15611f7c575f60065f9054906101000a900473ffffffffffffffffffffffffffffffffffffffff1673ffffffffffffffffffffffffffffffffffffffff16635e8f4816836001015460b46040518363ffffffff1660e01b8152600401611ec6929190613e0d565b6040805180830381865afa158015611ee0573d5f803e3d5ffd5b505050506040513d601f19601f82011682018060405250810190611f049190613e88565b5090505f8160070b13611f4c576040517f08c379a0000000000000000000000000000000000000000000000000000000008152600401611f4390613f10565b60405180910390fd5b808260020160186101000a81548167ffffffffffffffff021916908360070b67ffffffffffffffff160217905550505b3460035f8681526020019081526020015f205f3373ffffffffffffffffffffffffffffffffffffffff1673ffffffffffffffffffffffffffffffffffffffff1681526020019081526020015f205f828254611fd791906137b3565b9250508190555034816004015f828254611ff191906137b3565b925050819055503373ffffffffffffffffffffffffffffffffffffffff16847f4f1eed5e863a822b0f9eb960dfdab2cc5a99beec4b191f2a7a9c7e28e5a15524600134604051612042929190614368565b60405180910390a3505050612055612ef4565b50565b6003602052815f5260405f20602052805f5260405f205f91509150505481565b5f47905090565b612087612e29565b6120905f612efd565b565b60085f9054906101000a900473ffffffffffffffffffffffffffffffffffffffff1681565b6120bf612e29565b5f73ffffffffffffffffffffffffffffffffffffffff168173ffffffffffffffffffffffffffffffffffffffff160361212d576040517f08c379a0000000000000000000000000000000000000000000000000000000008152600401612124906143d9565b60405180910390fd5b8060065f6101000a81548173ffffffffffffffffffffffffffffffffffffffff021916908373ffffffffffffffffffffffffffffffffffffffff16021790555050565b60065f9054906101000a900473ffffffffffffffffffffffffffffffffffffffff1681565b683635c9adc5dea0000081565b603c81565b6002602052805f5260405f205f91509050805f015490806001015490806002015f9054906101000a900467ffffffffffffffff16908060020160089054906101000a900467ffffffffffffffff16908060020160109054906101000a900467ffffffffffffffff16908060020160189054906101000a900460070b90806003015f9054906101000a900460070b90806004015490806005015490806006015f9054906101000a900460ff16908060060160019054906101000a900460ff16908060060160029054906101000a900460ff1690508c565b5f60015f9054906101000a900473ffffffffffffffffffffffffffffffffffffffff16905090565b6122ad612fc7565b60055482106122f1576040517f08c379a00000000000000000000000000000000000000000000000000000000081526004016122e890613857565b60405180910390fd5b60025f8381526020019081526020015f20604051806101800160405290815f820154815260200160018201548152602001600282015f9054906101000a900467ffffffffffffffff1667ffffffffffffffff1667ffffffffffffffff1681526020016002820160089054906101000a900467ffffffffffffffff1667ffffffffffffffff1667ffffffffffffffff1681526020016002820160109054906101000a900467ffffffffffffffff1667ffffffffffffffff1667ffffffffffffffff1681526020016002820160189054906101000a900460070b60070b60070b8152602001600382015f9054906101000a900460070b60070b60070b81526020016004820154815260200160058201548152602001600682015f9054906101000a900460ff161515151581526020016006820160019054906101000a900460ff161515151581526020016006820160029054906101000a900460ff1660ff1660ff16815250509050919050565b60b481565b612469612eb0565b8060095f3373ffffffffffffffffffffffffffffffffffffffff1673ffffffffffffffffffffffffffffffffffffffff1681526020019081526020015f205410156124e9576040517f08c379a00000000000000000000000000000000000000000000000000000000081526004016124e090614441565b60405180910390fd5b8047101561252c576040517f08c379a0000000000000000000000000000000000000000000000000000000008152600401612523906144a9565b60405180910390fd5b8060095f3373ffffffffffffffffffffffffffffffffffffffff1673ffffffffffffffffffffffffffffffffffffffff1681526020019081526020015f205f8282546125789190613a4b565b925050819055505f3373ffffffffffffffffffffffffffffffffffffffff16826040516125a490613aab565b5f6040518083038185875af1925050503d805f81146125de576040519150601f19603f3d011682016040523d82523d5f602084013e6125e3565b606091505b5050905080612627576040517f08c379a000000000000000000000000000000000000000000000000000000000815260040161261e90613b09565b60405180910390fd5b50612630612ef4565b50565b6004602052815f5260405f20602052805f5260405f205f91509150505481565b61265b612e29565b5f4290505f603c8261266d9190613b8f565b90505f600a8261267d9190613bca565b905061268b848483856128dd565b50505050565b600a81565b61271081565b6126a4612e29565b5f73ffffffffffffffffffffffffffffffffffffffff168273ffffffffffffffffffffffffffffffffffffffff1603612712576040517f08c379a000000000000000000000000000000000000000000000000000000000815260040161270990614511565b60405180910390fd5b6101f48161ffff16111561275b576040517f08c379a000000000000000000000000000000000000000000000000000000000815260040161275290614579565b60405180910390fd5b8160075f6101000a81548173ffffffffffffffffffffffffffffffffffffffff021916908373ffffffffffffffffffffffffffffffffffffffff16021790555080600760146101000a81548161ffff021916908361ffff1602179055505050565b5f816005548110612802576040517f08c379a00000000000000000000000000000000000000000000000000000000081526004016127f990613857565b60405180910390fd5b5f60025f8581526020019081526020015f209050806006015f9054906101000a900460ff16156128365760059250506128d7565b806002015f9054906101000a900467ffffffffffffffff1667ffffffffffffffff164210156128695760019250506128d7565b8060020160089054906101000a900467ffffffffffffffff1667ffffffffffffffff1642101561289d5760029250506128d7565b8060020160109054906101000a900467ffffffffffffffff1667ffffffffffffffff164210156128d15760039250506128d7565b60049250505b50919050565b6128e5612e29565b5f801b8403612929576040517f08c379a0000000000000000000000000000000000000000000000000000000008152600401612920906145e1565b60405180910390fd5b4267ffffffffffffffff168367ffffffffffffffff161015612980576040517f08c379a000000000000000000000000000000000000000000000000000000000815260040161297790613b71565b60405180910390fd5b8267ffffffffffffffff168267ffffffffffffffff16116129d6576040517f08c379a00000000000000000000000000000000000000000000000000000000081526004016129cd90614649565b60405180910390fd5b8167ffffffffffffffff168167ffffffffffffffff1611612a2c576040517f08c379a0000000000000000000000000000000000000000000000000000000008152600401612a23906146b1565b60405180910390fd5b428167ffffffffffffffff1611612a78576040517f08c379a0000000000000000000000000000000000000000000000000000000008152600401612a6f90614719565b60405180910390fd5b603c83612a859190613b8f565b67ffffffffffffffff168167ffffffffffffffff1614612ada576040517f08c379a0000000000000000000000000000000000000000000000000000000008152600401612ad190614781565b60405180910390fd5b600a81612ae79190613bca565b67ffffffffffffffff168267ffffffffffffffff1614612b3c576040517f08c379a0000000000000000000000000000000000000000000000000000000008152600401612b33906147e9565b60405180910390fd5b5f60055f815480929190612b4f90614807565b9190505590506040518061018001604052808281526020018681526020018567ffffffffffffffff1681526020018467ffffffffffffffff1681526020018367ffffffffffffffff1681526020015f60070b81526020015f60070b81526020015f81526020015f81526020015f151581526020015f151581526020015f60ff1681525060025f8381526020019081526020015f205f820151815f0155602082015181600101556040820151816002015f6101000a81548167ffffffffffffffff021916908367ffffffffffffffff16021790555060608201518160020160086101000a81548167ffffffffffffffff021916908367ffffffffffffffff16021790555060808201518160020160106101000a81548167ffffffffffffffff021916908367ffffffffffffffff16021790555060a08201518160020160186101000a81548167ffffffffffffffff021916908360070b67ffffffffffffffff16021790555060c0820151816003015f6101000a81548167ffffffffffffffff021916908360070b67ffffffffffffffff16021790555060e082015181600401556101008201518160050155610120820151816006015f6101000a81548160ff0219169083151502179055506101408201518160060160016101000a81548160ff0219169083151502179055506101608201518160060160026101000a81548160ff021916908360ff16021790555090505084817f744a589c072388e9919c12610afce492f02fd882378c76881611f7fd885163ee8686865f604051612d96949392919061484e565b60405180910390a35050505050565b612dad612e29565b5f73ffffffffffffffffffffffffffffffffffffffff168173ffffffffffffffffffffffffffffffffffffffff1603612e1d575f6040517f1e4fbdf7000000000000000000000000000000000000000000000000000000008152600401612e149190613300565b60405180910390fd5b612e2681612efd565b50565b612e31612fc0565b73ffffffffffffffffffffffffffffffffffffffff16612e4f61227d565b73ffffffffffffffffffffffffffffffffffffffff1614612eae57612e72612fc0565b6040517f118cdaa7000000000000000000000000000000000000000000000000000000008152600401612ea59190613300565b60405180910390fd5b565b60025f5403612eeb576040517f3ee5aeb500000000000000000000000000000000000000000000000000000000815260040160405180910390fd5b60025f81905550565b60015f81905550565b5f60015f9054906101000a900473ffffffffffffffffffffffffffffffffffffffff1690508160015f6101000a81548173ffffffffffffffffffffffffffffffffffffffff021916908373ffffffffffffffffffffffffffffffffffffffff1602179055508173ffffffffffffffffffffffffffffffffffffffff168173ffffffffffffffffffffffffffffffffffffffff167f8be0079c531659141344cd1fd0a4f28419497f9722a3daafe3b4186f6b6457e060405160405180910390a35050565b5f33905090565b6040518061018001604052805f81526020015f80191681526020015f67ffffffffffffffff1681526020015f67ffffffffffffffff1681526020015f67ffffffffffffffff1681526020015f60070b81526020015f60070b81526020015f81526020015f81526020015f151581526020015f151581526020015f60ff1681525090565b5f80fd5b5f73ffffffffffffffffffffffffffffffffffffffff82169050919050565b5f6130778261304e565b9050919050565b6130878161306d565b8114613091575f80fd5b50565b5f813590506130a28161307e565b92915050565b5f819050919050565b6130ba816130a8565b81146130c4575f80fd5b50565b5f813590506130d5816130b1565b92915050565b5f67ffffffffffffffff82169050919050565b6130f7816130db565b8114613101575f80fd5b50565b5f81359050613112816130ee565b92915050565b5f805f6060848603121561312f5761312e61304a565b5b5f61313c86828701613094565b935050602061314d868287016130c7565b925050604061315e86828701613104565b9150509250925092565b5f806040838503121561317e5761317d61304a565b5b5f61318b858286016130c7565b925050602061319c85828601613094565b9150509250929050565b6131af816130a8565b82525050565b5f6040820190506131c85f8301856131a6565b6131d560208301846131a6565b9392505050565b5f602082840312156131f1576131f061304a565b5b5f6131fe84828501613094565b91505092915050565b5f61ffff82169050919050565b61321d81613207565b82525050565b5f6020820190506132365f830184613214565b92915050565b5f602082840312156132515761325061304a565b5b5f61325e848285016130c7565b91505092915050565b5f819050919050565b61327981613267565b8114613283575f80fd5b50565b5f8135905061329481613270565b92915050565b5f80604083850312156132b0576132af61304a565b5b5f6132bd85828601613286565b92505060206132ce85828601613104565b9150509250929050565b5f6020820190506132eb5f8301846131a6565b92915050565b6132fa8161306d565b82525050565b5f6020820190506133135f8301846132f1565b92915050565b5f806040838503121561332f5761332e61304a565b5b5f61333c85828601613094565b925050602061334d858286016130c7565b9150509250929050565b613360816130db565b82525050565b5f6020820190506133795f830184613357565b92915050565b61338881613267565b82525050565b5f8160070b9050919050565b6133a38161338e565b82525050565b5f8115159050919050565b6133bd816133a9565b82525050565b5f60ff82169050919050565b6133d8816133c3565b82525050565b5f610180820190506133f25f83018f6131a6565b6133ff602083018e61337f565b61340c604083018d613357565b613419606083018c613357565b613426608083018b613357565b61343360a083018a61339a565b61344060c083018961339a565b61344d60e08301886131a6565b61345b6101008301876131a6565b6134696101208301866133b4565b6134776101408301856133b4565b6134856101608301846133cf565b9d9c50505050505050505050505050565b61349f816130a8565b82525050565b6134ae81613267565b82525050565b6134bd816130db565b82525050565b6134cc8161338e565b82525050565b6134db816133a9565b82525050565b6134ea816133c3565b82525050565b61018082015f8201516135055f850182613496565b50602082015161351860208501826134a5565b50604082015161352b60408501826134b4565b50606082015161353e60608501826134b4565b50608082015161355160808501826134b4565b5060a082015161356460a08501826134c3565b5060c082015161357760c08501826134c3565b5060e082015161358a60e0850182613496565b5061010082015161359f610100850182613496565b506101208201516135b46101208501826134d2565b506101408201516135c96101408501826134d2565b506101608201516135de6101608501826134e1565b50505050565b5f610180820190506135f85f8301846134f0565b92915050565b5f602082840312156136135761361261304a565b5b5f61362084828501613286565b91505092915050565b61363281613207565b811461363c575f80fd5b50565b5f8135905061364d81613629565b92915050565b5f80604083850312156136695761366861304a565b5b5f61367685828601613094565b92505060206136878582860161363f565b9150509250929050565b5f6020820190506136a45f8301846133cf565b92915050565b5f805f80608085870312156136c2576136c161304a565b5b5f6136cf87828801613286565b94505060206136e087828801613104565b93505060406136f187828801613104565b925050606061370287828801613104565b91505092959194509250565b5f82825260208201905092915050565b7f4f6e6c79204343495020726563656976657200000000000000000000000000005f82015250565b5f61375260128361370e565b915061375d8261371e565b602082019050919050565b5f6020820190508181035f83015261377f81613746565b9050919050565b7f4e487b71000000000000000000000000000000000000000000000000000000005f52601160045260245ffd5b5f6137bd826130a8565b91506137c8836130a8565b92508282019050808211156137e0576137df613786565b5b92915050565b5f6040820190506137f95f8301856131a6565b6138066020830184613357565b9392505050565b7f526f756e6420646f6573206e6f742065786973740000000000000000000000005f82015250565b5f61384160148361370e565b915061384c8261380d565b602082019050919050565b5f6020820190508181035f83015261386e81613835565b9050919050565b7f526f756e64206e6f74207265736f6c76656400000000000000000000000000005f82015250565b5f6138a960128361370e565b91506138b482613875565b602082019050919050565b5f6020820190508181035f8301526138d68161389d565b9050919050565b7f4e6f207374616b6520746f20636c61696d0000000000000000000000000000005f82015250565b5f61391160118361370e565b915061391c826138dd565b602082019050919050565b5f6020820190508181035f83015261393e81613905565b9050919050565b7f4e6f2077696e6e657273000000000000000000000000000000000000000000005f82015250565b5f613979600a8361370e565b915061398482613945565b602082019050919050565b5f6020820190508181035f8301526139a68161396d565b9050919050565b5f6139b7826130a8565b91506139c2836130a8565b92508282026139d0816130a8565b915082820484148315176139e7576139e6613786565b5b5092915050565b7f4e487b71000000000000000000000000000000000000000000000000000000005f52601260045260245ffd5b5f613a25826130a8565b9150613a30836130a8565b925082613a4057613a3f6139ee565b5b828204905092915050565b5f613a55826130a8565b9150613a60836130a8565b9250828203905081811115613a7857613a77613786565b5b92915050565b5f81905092915050565b50565b5f613a965f83613a7e565b9150613aa182613a88565b5f82019050919050565b5f613ab582613a8b565b9150819050919050565b7f48424152207472616e73666572206661696c65640000000000000000000000005f82015250565b5f613af360148361370e565b9150613afe82613abf565b602082019050919050565b5f6020820190508181035f830152613b2081613ae7565b9050919050565b7f5374617274206d757374206265206e6f772f66757475726500000000000000005f82015250565b5f613b5b60188361370e565b9150613b6682613b27565b602082019050919050565b5f6020820190508181035f830152613b8881613b4f565b9050919050565b5f613b99826130db565b9150613ba4836130db565b9250828201905067ffffffffffffffff811115613bc457613bc3613786565b5b92915050565b5f613bd4826130db565b9150613bdf836130db565b9250828203905067ffffffffffffffff811115613bff57613bfe613786565b5b92915050565b7f526f756e6420616c7265616479207265736f6c766564000000000000000000005f82015250565b5f613c3960168361370e565b9150613c4482613c05565b602082019050919050565b5f6020820190508181035f830152613c6681613c2d565b9050919050565b7f526f756e64206e6f7420737461727465640000000000000000000000000000005f82015250565b5f613ca160118361370e565b9150613cac82613c6d565b602082019050919050565b5f6020820190508181035f830152613cce81613c95565b9050919050565b7f42657474696e6720706572696f6420656e6465640000000000000000000000005f82015250565b5f613d0960148361370e565b9150613d1482613cd5565b602082019050919050565b5f6020820190508181035f830152613d3681613cfd565b9050919050565b7f42657420616d6f756e74206d75737420626520706f73697469766500000000005f82015250565b5f613d71601b8361370e565b9150613d7c82613d3d565b602082019050919050565b5f6020820190508181035f830152613d9e81613d65565b9050919050565b7f42657420616d6f756e7420746f6f2068696768000000000000000000000000005f82015250565b5f613dd960138361370e565b9150613de482613da5565b602082019050919050565b5f6020820190508181035f830152613e0681613dcd565b9050919050565b5f604082019050613e205f83018561337f565b613e2d60208301846131a6565b9392505050565b613e3d8161338e565b8114613e47575f80fd5b50565b5f81519050613e5881613e34565b92915050565b613e67816133c3565b8114613e71575f80fd5b50565b5f81519050613e8281613e5e565b92915050565b5f8060408385031215613e9e57613e9d61304a565b5b5f613eab85828601613e4a565b9250506020613ebc85828601613e74565b9150509250929050565b7f496e76616c6964207265666572656e63652070726963650000000000000000005f82015250565b5f613efa60178361370e565b9150613f0582613ec6565b602082019050919050565b5f6020820190508181035f830152613f2781613eee565b9050919050565b5f819050919050565b5f819050919050565b5f613f5a613f55613f5084613f2e565b613f37565b6133c3565b9050919050565b613f6a81613f40565b82525050565b5f604082019050613f835f830185613f61565b613f9060208301846131a6565b9392505050565b7f5265736f6c76652074696d65206e6f74207265616368656400000000000000005f82015250565b5f613fcb60188361370e565b9150613fd682613f97565b602082019050919050565b5f6020820190508181035f830152613ff881613fbf565b9050919050565b5f819050919050565b5f61402261401d61401884613fff565b613f37565b6133c3565b9050919050565b61403281614008565b82525050565b5f819050919050565b5f61405b61405661405184614038565b613f37565b61338e565b9050919050565b61406b81614041565b82525050565b5f6040820190506140845f830185614029565b6140916020830184614062565b9392505050565b7f496e76616c696420736574746c656d656e7420707269636500000000000000005f82015250565b5f6140cc60188361370e565b91506140d782614098565b602082019050919050565b5f6020820190508181035f8301526140f9816140c0565b9050919050565b7f466565207472616e73666572206661696c6564000000000000000000000000005f82015250565b5f61413460138361370e565b915061413f82614100565b602082019050919050565b5f6020820190508181035f83015261416181614128565b9050919050565b5f60408201905061417b5f8301856133cf565b614188602083018461339a565b9392505050565b7f496e76616c6964206164647265737300000000000000000000000000000000005f82015250565b5f6141c3600f8361370e565b91506141ce8261418f565b602082019050919050565b5f6020820190508181035f8301526141f0816141b7565b9050919050565b7f496e73756666696369656e742062616c616e63650000000000000000000000005f82015250565b5f61422b60148361370e565b9150614236826141f7565b602082019050919050565b5f6020820190508181035f8301526142588161421f565b9050919050565b7f4f70656e20726f756e64732065786973740000000000000000000000000000005f82015250565b5f61429360118361370e565b915061429e8261425f565b602082019050919050565b5f6020820190508181035f8301526142c081614287565b9050919050565b7f7265636f766572206661696c65640000000000000000000000000000000000005f82015250565b5f6142fb600e8361370e565b9150614306826142c7565b602082019050919050565b5f6020820190508181035f830152614328816142ef565b9050919050565b5f819050919050565b5f61435261434d6143488461432f565b613f37565b6133c3565b9050919050565b61436281614338565b82525050565b5f60408201905061437b5f830185614359565b61438860208301846131a6565b9392505050565b7f496e76616c6964206f7261636c652061646472657373000000000000000000005f82015250565b5f6143c360168361370e565b91506143ce8261438f565b602082019050919050565b5f6020820190508181035f8301526143f0816143b7565b9050919050565b7f496e73756666696369656e7420637265646974730000000000000000000000005f82015250565b5f61442b60148361370e565b9150614436826143f7565b602082019050919050565b5f6020820190508181035f8301526144588161441f565b9050919050565b7f496e73756666696369656e7420636f6e74726163742062616c616e63650000005f82015250565b5f614493601d8361370e565b915061449e8261445f565b602082019050919050565b5f6020820190508181035f8301526144c081614487565b9050919050565b7f496e76616c6964206665652073696e6b206164647265737300000000000000005f82015250565b5f6144fb60188361370e565b9150614506826144c7565b602082019050919050565b5f6020820190508181035f830152614528816144ef565b9050919050565b7f46656520746f6f206869676800000000000000000000000000000000000000005f82015250565b5f614563600c8361370e565b915061456e8261452f565b602082019050919050565b5f6020820190508181035f83015261459081614557565b9050919050565b7f496e76616c6964206d61726b65740000000000000000000000000000000000005f82015250565b5f6145cb600e8361370e565b91506145d682614597565b602082019050919050565b5f6020820190508181035f8301526145f8816145bf565b9050919050565b7f4c6f636b2074696d65206d7573742062652061667465722073746172740000005f82015250565b5f614633601d8361370e565b915061463e826145ff565b602082019050919050565b5f6020820190508181035f83015261466081614627565b9050919050565b7f5265736f6c76652074696d65206d757374206265206166746572206c6f636b005f82015250565b5f61469b601f8361370e565b91506146a682614667565b602082019050919050565b5f6020820190508181035f8301526146c88161468f565b9050919050565b7f5265736f6c76652074696d65206d75737420626520696e2066757475726500005f82015250565b5f614703601e8361370e565b915061470e826146cf565b602082019050919050565b5f6020820190508181035f830152614730816146f7565b9050919050565b7f6d7573742062652073746172742b3630000000000000000000000000000000005f82015250565b5f61476b60108361370e565b915061477682614737565b602082019050919050565b5f6020820190508181035f8301526147988161475f565b9050919050565b7f6c6f636b206d757374206265207265736f6c76652d31300000000000000000005f82015250565b5f6147d360178361370e565b91506147de8261479f565b602082019050919050565b5f6020820190508181035f830152614800816147c7565b9050919050565b5f614811826130a8565b91507fffffffffffffffffffffffffffffffffffffffffffffffffffffffffffffffff820361484357614842613786565b5b600182019050919050565b5f6080820190506148615f830187613357565b61486e6020830186613357565b61487b6040830185613357565b6148886060830184614062565b9594505050505056fea264697066735822122023e405a5381ad5de26b0580a96536ab8ba62de472c809ff13567590a60ad65b164736f6c63430008180033",
  "linkReferences": {},
  "deployedLinkReferences": {},
  "immutableReferences": {},
  "inputSourceName": "project/contracts/EscrowGame.sol",
  "buildInfoId": "solc-0_8_24-9c3fdca5d1a32b80d1cb8ef3883d57fa7af19b10"
}