{
  "_format": "hh3-artifact-1",
  "contractName": "EscrowGame",
  "sourceName": "contracts/EscrowGame.sol",
  "abi": [
    {
      "inputs": [
        {
          "internalType": "address",
          "name": "_oracle",
          "type": "address"
        },
        {
          "internalType": "address",
          "name": "_feeSink",
          "type": "address"
        },
        {
          "internalType": "uint16",
          "name": "_feeBps",
          "type": "uint16"
        }
      ],
      "stateMutability": "nonpayable",
      "type": "constructor"
    },
    {
      "inputs": [
        {
          "internalType": "address",
          "name": "owner",
          "type": "address"
        }
      ],
      "name": "OwnableInvalidOwner",
      "type": "error"
    },
    {
      "inputs": [
        {
          "internalType": "address",
          "name": "account",
          "type": "address"
        }
      ],
      "name": "OwnableUnauthorizedAccount",
      "type": "error"
    },
    {
      "inputs": [],
      "name": "ReentrancyGuardReentrantCall",
      "type": "error"
    },
    {
      "anonymous": false,
      "inputs": [
        {
          "indexed": true,
          "internalType": "uint256",
          "name": "roundId",
          "type": "uint256"
        },
        {
          "indexed": true,
          "internalType": "address",
          "name": "user",
          "type": "address"
        },
        {
          "indexed": false,
          "internalType": "uint8",
          "name": "side",
          "type": "uint8"
        },
        {
          "indexed": false,
          "internalType": "uint256",
          "name": "amount",
          "type": "uint256"
        }
      ],
      "name": "BetPlaced",
      "type": "event"
    },
    {
      "anonymous": false,
      "inputs": [
        {
          "indexed": true,
          "internalType": "uint256",
          "name": "roundId",
          "type": "uint256"
        },
        {
          "indexed": true,
          "internalType": "address",
          "name": "user",
          "type": "address"
        },
        {
          "indexed": false,
          "internalType": "uint256",
          "name": "amount",
          "type": "uint256"
        }
      ],
      "name": "Claimed",
      "type": "event"
    },
    {
      "anonymous": false,
      "inputs": [
        {
          "indexed": true,
          "internalType": "address",
          "name": "user",
          "type": "address"
        },
        {
          "indexed": false,
          "internalType": "uint256",
          "name": "amount",
          "type": "uint256"
        },
        {
          "indexed": false,
          "internalType": "uint64",
          "name": "sourceChain",
          "type": "uint64"
        }
      ],
      "name": "CreditAdded",
      "type": "event"
    },
    {
      "anonymous": false,
      "inputs": [
        {
          "indexed": true,
          "internalType": "uint256",
          "name": "roundId",
          "type": "uint256"
        },
        {
          "indexed": false,
          "internalType": "uint256",
          "name": "feeAmount",
          "type": "uint256"
        }
      ],
      "name": "FeeTaken",
      "type": "event"
    },
    {
      "anonymous": false,
      "inputs": [
        {
          "indexed": true,
          "internalType": "address",
          "name": "previousOwner",
          "type": "address"
        },
        {
          "indexed": true,
          "internalType": "address",
          "name": "newOwner",
          "type": "address"
        }
      ],
      "name": "OwnershipTransferred",
      "type": "event"
    },
    {
      "anonymous": false,
      "inputs": [
        {
          "indexed": true,
          "internalType": "uint256",
          "name": "id",
          "type": "uint256"
        },
        {
          "indexed": true,
          "internalType": "bytes32",
          "name": "market",
          "type": "bytes32"
        },
        {
          "indexed": false,
          "internalType": "uint64",
          "name": "startTs",
          "type": "uint64"
        },
        {
          "indexed": false,
          "internalType": "uint64",
          "name": "lockTs",
          "type": "uint64"
        },
        {
          "indexed": false,
          "internalType": "uint64",
          "name": "resolveTs",
          "type": "uint64"
        },
        {
          "indexed": false,
          "internalType": "int64",
          "name": "refPrice",
          "type": "int64"
        }
      ],
      "name": "RoundCreated",
      "type": "event"
    },
    {
      "anonymous": false,
      "inputs": [
        {
          "indexed": true,
          "internalType": "uint256",
          "name": "roundId",
          "type": "uint256"
        },
        {
          "indexed": false,
          "internalType": "uint8",
          "name": "outcome",
          "type": "uint8"
        },
        {
          "indexed": false,
          "internalType": "int64",
          "name": "settlePrice",
          "type": "int64"
        }
      ],
      "name": "RoundResolved",
      "type": "event"
    },
    {
      "inputs": [],
      "name": "BASIS_POINTS",
      "outputs": [
        {
          "internalType": "uint256",
          "name": "",
          "type": "uint256"
        }
      ],
      "stateMutability": "view",
      "type": "function"
    },
    {
      "inputs": [],
      "name": "LOCK_SECONDS",
      "outputs": [
        {
          "internalType": "uint64",
          "name": "",
          "type": "uint64"
        }
      ],
      "stateMutability": "view",
      "type": "function"
    },
    {
      "inputs": [],
      "name": "MAX_BET",
      "outputs": [
        {
          "internalType": "uint256",
          "name": "",
          "type": "uint256"
        }
      ],
      "stateMutability": "view",
      "type": "function"
    },
    {
      "inputs": [],
      "name": "MAX_PRICE_AGE",
      "outputs": [
        {
          "internalType": "uint256",
          "name": "",
          "type": "uint256"
        }
      ],
      "stateMutability": "view",
      "type": "function"
    },
    {
      "inputs": [],
      "name": "ROUND_SECONDS",
      "outputs": [
        {
          "internalType": "uint64",
          "name": "",
          "type": "uint64"
        }
      ],
      "stateMutability": "view",
      "type": "function"
    },
    {
      "inputs": [
        {
          "internalType": "address",
          "name": "user",
          "type": "address"
        },
        {
          "internalType": "uint256",
          "name": "amount",
          "type": "uint256"
        },
        {
          "internalType": "uint64",
          "name": "sourceChain",
          "type": "uint64"
        }
      ],
      "name": "addInternalCredits",
      "outputs": [],
      "stateMutability": "nonpayable",
      "type": "function"
    },
    {
      "inputs": [
        {
          "internalType": "uint256",
          "name": "roundId",
          "type": "uint256"
        }
      ],
      "name": "betDown",
      "outputs": [],
      "stateMutability": "payable",
      "type": "function"
    },
    {
      "inputs": [
        {
          "internalType": "uint256",
          "name": "roundId",
          "type": "uint256"
        }
      ],
      "name": "betUp",
      "outputs": [],
      "stateMutability": "payable",
      "type": "function"
    },
    {
      "inputs": [],
      "name": "ccipReceiver",
      "outputs": [
        {
          "internalType": "address",
          "name": "",
          "type": "address"
        }
      ],
      "stateMutability": "view",
      "type": "function"
    },
    {
      "inputs": [
        {
          "internalType": "uint256",
          "name": "roundId",
          "type": "uint256"
        }
      ],
      "name": "claim",
      "outputs": [],
      "stateMutability": "nonpayable",
      "type": "function"
    },
    {
      "inputs": [
        {
          "internalType": "bytes32",
          "name": "market",
          "type": "bytes32"
        },
        {
          "internalType": "uint64",
          "name": "startTs",
          "type": "uint64"
        },
        {
          "internalType": "uint64",
          "name": "lockTs",
          "type": "uint64"
        },
        {
          "internalType": "uint64",
          "name": "resolveTs",
          "type": "uint64"
        }
      ],
      "name": "createRound",
      "outputs": [],
      "stateMutability": "nonpayable",
      "type": "function"
    },
    {
      "inputs": [
        {
          "internalType": "bytes32",
          "name": "market",
          "type": "bytes32"
        },
        {
          "internalType": "uint64",
          "name": "startTs",
          "type": "uint64"
        }
      ],
      "name": "createRound60",
      "outputs": [],
      "stateMutability": "nonpayable",
      "type": "function"
    },
    {
      "inputs": [
        {
          "internalType": "bytes32",
          "name": "market",
          "type": "bytes32"
        }
      ],
      "name": "createRoundNow60",
      "outputs": [],
      "stateMutability": "nonpayable",
      "type": "function"
    },
    {
      "inputs": [
        {
          "internalType": "uint256",
          "name": "",
          "type": "uint256"
        },
        {
          "internalType": "address",
          "name": "",
          "type": "address"
        }
      ],
      "name": "downStakes",
      "outputs": [
        {
          "internalType": "uint256",
          "name": "",
          "type": "uint256"
        }
      ],
      "stateMutability": "view",
      "type": "function"
    },
    {
      "inputs": [],
      "name": "feeBps",
      "outputs": [
        {
          "internalType": "uint16",
          "name": "",
          "type": "uint16"
        }
      ],
      "stateMutability": "view",
      "type": "function"
    },
    {
      "inputs": [],
      "name": "feeSink",
      "outputs": [
        {
          "internalType": "address",
          "name": "",
          "type": "address"
        }
      ],
      "stateMutability": "view",
      "type": "function"
    },
    {
      "inputs": [],
      "name": "getContractBalance",
      "outputs": [
        {
          "internalType": "uint256",
          "name": "",
          "type": "uint256"
        }
      ],
      "stateMutability": "view",
      "type": "function"
    },
    {
      "inputs": [
        {
          "internalType": "uint256",
          "name": "roundId",
          "type": "uint256"
        }
      ],
      "name": "getRound",
      "outputs": [
        {
          "components": [
            {
              "internalType": "uint256",
              "name": "id",
              "type": "uint256"
            },
            {
              "internalType": "bytes32",
              "name": "market",
              "type": "bytes32"
            },
            {
              "internalType": "uint64",
              "name": "startTs",
              "type": "uint64"
            },
            {
              "internalType": "uint64",
              "name": "lockTs",
              "type": "uint64"
            },
            {
              "internalType": "uint64",
              "name": "resolveTs",
              "type": "uint64"
            },
            {
              "internalType": "int64",
              "name": "refPrice",
              "type": "int64"
            },
            {
              "internalType": "int64",
              "name": "settlePrice",
              "type": "int64"
            },
            {
              "internalType": "uint256",
              "name": "upPool",
              "type": "uint256"
            },
            {
              "internalType": "uint256",
              "name": "downPool",
              "type": "uint256"
            },
            {
              "internalType": "bool",
              "name": "resolved",
              "type": "bool"
            },
            {
              "internalType": "bool",
              "name": "feePaid",
              "type": "bool"
            },
            {
              "internalType": "uint8",
              "name": "outcome",
              "type": "uint8"
            }
          ],
          "internalType": "struct EscrowGame.Round",
          "name": "",
          "type": "tuple"
        }
      ],
      "stateMutability": "view",
      "type": "function"
    },
    {
      "inputs": [
        {
          "internalType": "uint256",
          "name": "roundId",
          "type": "uint256"
        },
        {
          "internalType": "address",
          "name": "user",
          "type": "address"
        }
      ],
      "name": "getUserStakes",
      "outputs": [
        {
          "internalType": "uint256",
          "name": "upStake",
          "type": "uint256"
        },
        {
          "internalType": "uint256",
          "name": "downStake",
          "type": "uint256"
        }
      ],
      "stateMutability": "view",
      "type": "function"
    },
    {
      "inputs": [
        {
          "internalType": "address",
          "name": "",
          "type": "address"
        }
      ],
      "name": "internalCredits",
      "outputs": [
        {
          "internalType": "uint256",
          "name": "",
          "type": "uint256"
        }
      ],
      "stateMutability": "view",
      "type": "function"
    },
    {
      "inputs": [],
      "name": "nextRoundId",
      "outputs": [
        {
          "internalType": "uint256",
          "name": "",
          "type": "uint256"
        }
      ],
      "stateMutability": "view",
      "type": "function"
    },
    {
      "inputs": [],
      "name": "oracle",
      "outputs": [
        {
          "internalType": "address",
          "name": "",
          "type": "address"
        }
      ],
      "stateMutability": "view",
      "type": "function"
    },
    {
      "inputs": [],
      "name": "owner",
      "outputs": [
        {
          "internalType": "address",
          "name": "",
          "type": "address"
        }
      ],
      "stateMutability": "view",
      "type": "function"
    },
    {
      "inputs": [
        {
          "internalType": "address",
          "name": "to",
          "type": "address"
        },
        {
          "internalType": "uint256",
          "name": "amount",
          "type": "uint256"
        }
      ],
      "name": "recoverExcess",
      "outputs": [],
      "stateMutability": "nonpayable",
      "type": "function"
    },
    {
      "inputs": [],
      "name": "renounceOwnership",
      "outputs": [],
      "stateMutability": "nonpayable",
      "type": "function"
    },
    {
      "inputs": [
        {
          "internalType": "uint256",
          "name": "roundId",
          "type": "uint256"
        }
      ],
      "name": "resolve",
      "outputs": [],
      "stateMutability": "nonpayable",
      "type": "function"
    },
    {
      "inputs": [
        {
          "internalType": "uint256",
          "name": "",
          "type": "uint256"
        }
      ],
      "name": "rounds",
      "outputs": [
        {
          "internalType": "uint256",
          "name": "id",
          "type": "uint256"
        },
        {
          "internalType": "bytes32",
          "name": "market",
          "type": "bytes32"
        },
        {
          "internalType": "uint64",
          "name": "startTs",
          "type": "uint64"
        },
        {
          "internalType": "uint64",
          "name": "lockTs",
          "type": "uint64"
        },
        {
          "internalType": "uint64",
          "name": "resolveTs",
          "type": "uint64"
        },
        {
          "internalType": "int64",
          "name": "refPrice",
          "type": "int64"
        },
        {
          "internalType": "int64",
          "name": "settlePrice",
          "type": "int64"
        },
        {
          "internalType": "uint256",
          "name": "upPool",
          "type": "uint256"
        },
        {
          "internalType": "uint256",
          "name": "downPool",
          "type": "uint256"
        },
        {
          "internalType": "bool",
          "name": "resolved",
          "type": "bool"
        },
        {
          "internalType": "bool",
          "name": "feePaid",
          "type": "bool"
        },
        {
          "internalType": "uint8",
          "name": "outcome",
          "type": "uint8"
        }
      ],
      "stateMutability": "view",
      "type": "function"
    },
    {
      "inputs": [
        {
          "internalType": "address",
          "name": "_ccipReceiver",
          "type": "address"
        }
      ],
      "name": "setCCIPReceiver",
      "outputs": [],
      "stateMutability": "nonpayable",
      "type": "function"
    },
    {
      "inputs": [
        {
          "internalType": "address",
          "name": "_feeSink",
          "type": "address"
        },
        {
          "internalType": "uint16",
          "name": "_feeBps",
          "type": "uint16"
        }
      ],
      "name": "setFees",
      "outputs": [],
      "stateMutability": "nonpayable",
      "type": "function"
    },
    {
      "inputs": [
        {
          "internalType": "address",
          "name": "_oracle",
          "type": "address"
        }
      ],
      "name": "setOracle",
      "outputs": [],
      "stateMutability": "nonpayable",
      "type": "function"
    },
    {
      "inputs": [
        {
          "internalType": "address",
          "name": "newOwner",
          "type": "address"
        }
      ],
      "name": "transferOwnership",
      "outputs": [],
      "stateMutability": "nonpayable",
      "type": "function"
    },
    {
      "inputs": [
        {
          "internalType": "uint256",
          "name": "",
          "type": "uint256"
        },
        {
          "internalType": "address",
          "name": "",
          "type": "address"
        }
      ],
      "name": "upStakes",
      "outputs": [
        {
          "internalType": "uint256",
          "name": "",
          "type": "uint256"
        }
      ],
      "stateMutability": "view",
      "type": "function"
    },
    {
      "inputs": [
        {
          "internalType": "uint256",
          "name": "amount",
          "type": "uint256"
        }
      ],
      "name": "withdrawInternalCredits",
      "outputs": [],
      "stateMutability": "nonpayable",
      "type": "function"
    },
    {
      "stateMutability": "payable",
      "type": "receive"
    }
  ],
  "bytecode": "0x608060405234801562000010575f80fd5b50604051620049f6380380620049f68339818101604052810190620000369190620003fb565b3360015f819055505f73ffffffffffffffffffffffffffffffffffffffff168173ffffffffffffffffffffffffffffffffffffffff1603620000b1575f6040517f1e4fbdf7000000000000000000000000000000000000000000000000000000008152600401620000a8919062000465565b60405180910390fd5b620000c2816200029760201b60201c565b505f73ffffffffffffffffffffffffffffffffffffffff168373ffffffffffffffffffffffffffffffffffffffff160362000134576040517f08c379a00000000000000000000000000000000000000000000000000000000081526004016200012b90620004de565b60405180910390fd5b5f73ffffffffffffffffffffffffffffffffffffffff168273ffffffffffffffffffffffffffffffffffffffff1603620001a5576040517f08c379a00000000000000000000000000000000000000000000000000000000081526004016200019c906200054c565b60405180910390fd5b6101f48161ffff161115620001f1576040517f08c379a0000000000000000000000000000000000000000000000000000000008152600401620001e890620005ba565b60405180910390fd5b8260065f6101000a81548173ffffffffffffffffffffffffffffffffffffffff021916908373ffffffffffffffffffffffffffffffffffffffff1602179055508160075f6101000a81548173ffffffffffffffffffffffffffffffffffffffff021916908373ffffffffffffffffffffffffffffffffffffffff16021790555080600760146101000a81548161ffff021916908361ffff160217905550505050620005da565b5f60015f9054906101000a900473ffffffffffffffffffffffffffffffffffffffff1690508160015f6101000a81548173ffffffffffffffffffffffffffffffffffffffff021916908373ffffffffffffffffffffffffffffffffffffffff1602179055508173ffffffffffffffffffffffffffffffffffffffff168173ffffffffffffffffffffffffffffffffffffffff167f8be0079c531659141344cd1fd0a4f28419497f9722a3daafe3b4186f6b6457e060405160405180910390a35050565b5f80fd5b5f73ffffffffffffffffffffffffffffffffffffffff82169050919050565b5f62000389826200035e565b9050919050565b6200039b816200037d565b8114620003a6575f80fd5b50565b5f81519050620003b98162000390565b92915050565b5f61ffff82169050919050565b620003d781620003bf565b8114620003e2575f80fd5b50565b5f81519050620003f581620003cc565b92915050565b5f805f606084860312156200041557620004146200035a565b5b5f6200042486828701620003a9565b93505060206200043786828701620003a9565b92505060406200044a86828701620003e5565b9150509250925092565b6200045f816200037d565b82525050565b5f6020820190506200047a5f83018462000454565b92915050565b5f82825260208201905092915050565b7f496e76616c6964206f7261636c652061646472657373000000000000000000005f82015250565b5f620004c660168362000480565b9150620004d38262000490565b602082019050919050565b5f6020820190508181035f830152620004f781620004b8565b9050919050565b7f496e76616c6964206665652073696e6b206164647265737300000000000000005f82015250565b5f6200053460188362000480565b91506200054182620004fe565b602082019050919050565b5f6020820190508181035f830152620005658162000526565b9050919050565b7f46656520746f6f206869676800000000000000000000000000000000000000005f82015250565b5f620005a2600c8362000480565b9150620005af826200056c565b602082019050919050565b5f6020820190508181035f830152620005d38162000594565b9050919050565b61440e80620005e85f395ff3fe6080604052600436106101f1575f3560e01c806379039ed21161010c5780639d7f7e861161009f578063be9511831161006e578063be951183146106ca578063e1f1c4a7146106f4578063e1fe39361461071e578063e82cc9e314610746578063f2fde38b1461076e576101f8565b80639d7f7e8614610614578063a33035dd1461063e578063a49a011d14610666578063b24fede7146106a2576101f8565b80638b3e0476116100db5780638b3e04761461053d5780638c65c81f146105675780638da5cb5b146105ae5780638f1327c0146105d8576101f8565b806379039ed2146104975780637adbf973146104c15780637dc0d1d0146104e95780637e95b52314610513576101f8565b80634b38474d116101845780635e457cf8116101535780635e457cf8146103ff5780636b8f7d6f1461041b5780636f9fb98a14610457578063715018a614610481576101f8565b80634b38474d146103495780634ea01061146103735780634f896d4f146103af578063594f518d146103d7576101f8565b8063379607f5116101c0578063379607f5146102b35780633c743dd6146102db5780634002eda61461030357806347d2a6c71461032d576101f8565b80630145317c146101fc57806314ce783d1461022457806322a1f7831461026157806324a9d85314610289576101f8565b366101f857005b5f80fd5b348015610207575f80fd5b50610222600480360381019061021d9190612de3565b610796565b005b34801561022f575f80fd5b5061024a60048036038101906102459190612e33565b6108cd565b604051610258929190612e80565b60405180910390f35b34801561026c575f80fd5b5061028760048036038101906102829190612ea7565b610974565b005b348015610294575f80fd5b5061029d6109bf565b6040516102aa9190612eee565b60405180910390f35b3480156102be575f80fd5b506102d960048036038101906102d49190612f07565b6109d3565b005b3480156102e6575f80fd5b5061030160048036038101906102fc9190612f65565b610e83565b005b34801561030e575f80fd5b50610317610f14565b6040516103249190612fa3565b60405180910390f35b61034760048036038101906103429190612f07565b610f1a565b005b348015610354575f80fd5b5061035d611370565b60405161036a9190612fcb565b60405180910390f35b34801561037e575f80fd5b5061039960048036038101906103949190612ea7565b611395565b6040516103a69190612fa3565b60405180910390f35b3480156103ba575f80fd5b506103d560048036038101906103d09190612f07565b6113aa565b005b3480156103e2575f80fd5b506103fd60048036038101906103f89190612fe4565b61196e565b005b61041960048036038101906104149190612f07565b611b4d565b005b348015610426575f80fd5b50610441600480360381019061043c9190612e33565b611fa3565b60405161044e9190612fa3565b60405180910390f35b348015610462575f80fd5b5061046b611fc3565b6040516104789190612fa3565b60405180910390f35b34801561048c575f80fd5b50610495611fca565b005b3480156104a2575f80fd5b506104ab611fdd565b6040516104b89190612fcb565b60405180910390f35b3480156104cc575f80fd5b506104e760048036038101906104e29190612ea7565b612002565b005b3480156104f4575f80fd5b506104fd6120bb565b60405161050a9190612fcb565b60405180910390f35b34801561051e575f80fd5b506105276120e0565b6040516105349190612fa3565b60405180910390f35b348015610548575f80fd5b506105516120ed565b60405161055e9190613031565b60405180910390f35b348015610572575f80fd5b5061058d60048036038101906105889190612f07565b6120f2565b6040516105a59c9b9a999897969594939291906130a9565b60405180910390f35b3480156105b9575f80fd5b506105c26121c8565b6040516105cf9190612fcb565b60405180910390f35b3480156105e3575f80fd5b506105fe60048036038101906105f99190612f07565b6121f0565b60405161060b91906132af565b60405180910390f35b34801561061f575f80fd5b506106286123a7565b6040516106359190612fa3565b60405180910390f35b348015610649575f80fd5b50610664600480360381019061065f9190612f07565b6123ac565b005b348015610671575f80fd5b5061068c60048036038101906106879190612e33565b61257e565b6040516106999190612fa3565b60405180910390f35b3480156106ad575f80fd5b506106c860048036038101906106c391906132c9565b61259e565b005b3480156106d5575f80fd5b506106de6125dc565b6040516106eb9190613031565b60405180910390f35b3480156106ff575f80fd5b506107086125e1565b6040516107159190612fa3565b60405180910390f35b348015610729575f80fd5b50610744600480360381019061073f919061331e565b6125e7565b005b348015610751575f80fd5b5061076c6004803603810190610767919061335c565b612707565b005b348015610779575f80fd5b50610794600480360381019061078f9190612ea7565b612a70565b005b60085f9054906101000a900473ffffffffffffffffffffffffffffffffffffffff1673ffffffffffffffffffffffffffffffffffffffff163373ffffffffffffffffffffffffffffffffffffffff1614610825576040517f08c379a000000000000000000000000000000000000000000000000000000000815260040161081c9061341a565b60405180910390fd5b8160095f8573ffffffffffffffffffffffffffffffffffffffff1673ffffffffffffffffffffffffffffffffffffffff1681526020019081526020015f205f8282546108719190613465565b925050819055508273ffffffffffffffffffffffffffffffffffffffff167f746de67305abd0a621888f2328e7be621d09055e22d82d87cf71d544285feecc83836040516108c0929190613498565b60405180910390a2505050565b5f8060035f8581526020019081526020015f205f8473ffffffffffffffffffffffffffffffffffffffff1673ffffffffffffffffffffffffffffffffffffffff1681526020019081526020015f205460045f8681526020019081526020015f205f8573ffffffffffffffffffffffffffffffffffffffff1673ffffffffffffffffffffffffffffffffffffffff1681526020019081526020015f2054915091509250929050565b61097c612af4565b8060085f6101000a81548173ffffffffffffffffffffffffffffffffffffffff021916908373ffffffffffffffffffffffffffffffffffffffff16021790555050565b600760149054906101000a900461ffff1681565b6109db612b7b565b806005548110610a20576040517f08c379a0000000000000000000000000000000000000000000000000000000008152600401610a1790613509565b60405180910390fd5b5f60025f8481526020019081526020015f209050806006015f9054906101000a900460ff16610a84576040517f08c379a0000000000000000000000000000000000000000000000000000000008152600401610a7b90613571565b60405180910390fd5b5f60035f8581526020019081526020015f205f3373ffffffffffffffffffffffffffffffffffffffff1673ffffffffffffffffffffffffffffffffffffffff1681526020019081526020015f205490505f60045f8681526020019081526020015f205f3373ffffffffffffffffffffffffffffffffffffffff1673ffffffffffffffffffffffffffffffffffffffff1681526020019081526020015f205490505f8183610b319190613465565b90505f8111610b75576040517f08c379a0000000000000000000000000000000000000000000000000000000008152600401610b6c906135d9565b60405180910390fd5b5f60038560060160029054906101000a900460ff1660ff1603610b9a57819050610ccf565b5f60018660060160029054906101000a900460ff1660ff1614610bc1578560050154610bc7565b85600401545b90505f60018760060160029054906101000a900460ff1660ff1614610bf0578660040154610bf6565b86600501545b90505f8211610c3a576040517f08c379a0000000000000000000000000000000000000000000000000000000008152600401610c3190613641565b60405180910390fd5b5f8183610c479190613465565b90505f612710600760149054906101000a900461ffff1661ffff1683610c6d919061365f565b610c7791906136cd565b90505f8183610c8691906136fd565b90505f60018b60060160029054906101000a900460ff1660ff1614610cab5788610cad565b895b9050858282610cbc919061365f565b610cc691906136cd565b96505050505050505b5f60035f8981526020019081526020015f205f3373ffffffffffffffffffffffffffffffffffffffff1673ffffffffffffffffffffffffffffffffffffffff1681526020019081526020015f20819055505f60045f8981526020019081526020015f205f3373ffffffffffffffffffffffffffffffffffffffff1673ffffffffffffffffffffffffffffffffffffffff1681526020019081526020015f20819055505f811115610e72575f3373ffffffffffffffffffffffffffffffffffffffff1682604051610d9e9061375d565b5f6040518083038185875af1925050503d805f8114610dd8576040519150601f19603f3d011682016040523d82523d5f602084013e610ddd565b606091505b5050905080610e21576040517f08c379a0000000000000000000000000000000000000000000000000000000008152600401610e18906137bb565b60405180910390fd5b3373ffffffffffffffffffffffffffffffffffffffff16887f4ec90e965519d92681267467f775ada5bd214aa92c0dc93d90a5e880ce9ed02684604051610e689190612fa3565b60405180910390a3505b505050505050610e80612bbf565b50565b610e8b612af4565b4267ffffffffffffffff168167ffffffffffffffff161015610ee2576040517f08c379a0000000000000000000000000000000000000000000000000000000008152600401610ed990613823565b60405180910390fd5b5f603282610ef09190613841565b90505f603c83610f009190613841565b9050610f0e84848484612707565b50505050565b60055481565b610f22612b7b565b806005548110610f67576040517f08c379a0000000000000000000000000000000000000000000000000000000008152600401610f5e90613509565b60405180910390fd5b8160025f8281526020019081526020015f206006015f9054906101000a900460ff1615610fc9576040517f08c379a0000000000000000000000000000000000000000000000000000000008152600401610fc0906138c6565b60405180910390fd5b5f60025f8581526020019081526020015f209050806002015f9054906101000a900467ffffffffffffffff1667ffffffffffffffff16421015611041576040517f08c379a00000000000000000000000000000000000000000000000000000000081526004016110389061392e565b60405180910390fd5b8060020160089054906101000a900467ffffffffffffffff1667ffffffffffffffff1642106110a5576040517f08c379a000000000000000000000000000000000000000000000000000000000815260040161109c90613996565b60405180910390fd5b5f34116110e7576040517f08c379a00000000000000000000000000000000000000000000000000000000081526004016110de906139fe565b60405180910390fd5b683635c9adc5dea00000341115611133576040517f08c379a000000000000000000000000000000000000000000000000000000000815260040161112a90613a66565b60405180910390fd5b5f8160020160189054906101000a900460070b60070b1480156111775750806002015f9054906101000a900467ffffffffffffffff1667ffffffffffffffff164210155b15611294575f60065f9054906101000a900473ffffffffffffffffffffffffffffffffffffffff1673ffffffffffffffffffffffffffffffffffffffff16635e8f4816836001015460b46040518363ffffffff1660e01b81526004016111de929190613a84565b6040805180830381865afa1580156111f8573d5f803e3d5ffd5b505050506040513d601f19601f8201168201806040525081019061121c9190613aff565b5090505f8160070b13611264576040517f08c379a000000000000000000000000000000000000000000000000000000000815260040161125b90613b87565b60405180910390fd5b808260020160186101000a81548167ffffffffffffffff021916908360070b67ffffffffffffffff160217905550505b3460045f8681526020019081526020015f205f3373ffffffffffffffffffffffffffffffffffffffff1673ffffffffffffffffffffffffffffffffffffffff1681526020019081526020015f205f8282546112ef9190613465565b9250508190555034816005015f8282546113099190613465565b925050819055503373ffffffffffffffffffffffffffffffffffffffff16847f4f1eed5e863a822b0f9eb960dfdab2cc5a99beec4b191f2a7a9c7e28e5a1552460023460405161135a929190613be7565b60405180910390a350505061136d612bbf565b50565b60075f9054906101000a900473ffffffffffffffffffffffffffffffffffffffff1681565b6009602052805f5260405f205f915090505481565b8060055481106113ef576040517f08c379a00000000000000000000000000000000000000000000000000000000081526004016113e690613509565b60405180910390fd5b8160025f8281526020019081526020015f206006015f9054906101000a900460ff1615611451576040517f08c379a0000000000000000000000000000000000000000000000000000000008152600401611448906138c6565b60405180910390fd5b5f60025f8581526020019081526020015f2090508060020160109054906101000a900467ffffffffffffffff1667ffffffffffffffff164210156114ca576040517f08c379a00000000000000000000000000000000000000000000000000000000081526004016114c190613c58565b60405180910390fd5b5f8160020160189054906101000a900460070b60070b13611520576040517f08c379a000000000000000000000000000000000000000000000000000000000815260040161151790613cc0565b60405180910390fd5b5f60065f9054906101000a900473ffffffffffffffffffffffffffffffffffffffff1673ffffffffffffffffffffffffffffffffffffffff16635e8f4816836001015460b46040518363ffffffff1660e01b8152600401611582929190613a84565b6040805180830381865afa15801561159c573d5f803e3d5ffd5b505050506040513d601f19601f820116820180604052508101906115c09190613aff565b5090505f8160070b13611608576040517f08c379a00000000000000000000000000000000000000000000000000000000081526004016115ff90613d28565b60405180910390fd5b80826003015f6101000a81548167ffffffffffffffff021916908360070b67ffffffffffffffff1602179055508160020160189054906101000a900460070b60070b8160070b13156116775760018260060160026101000a81548160ff021916908360ff1602179055506116d9565b8160020160189054906101000a900460070b60070b8160070b12156116b95760028260060160026101000a81548160ff021916908360ff1602179055506116d8565b60038260060160026101000a81548160ff021916908360ff1602179055505b5b60018260060160029054906101000a900460ff1660ff1614801561170057505f8260040154145b8061172e575060028260060160029054906101000a900460ff1660ff1614801561172d57505f8260050154145b5b156117525760038260060160026101000a81548160ff021916908360ff1602179055505b60018260060160029054906101000a900460ff1660ff161480611789575060028260060160029054906101000a900460ff1660ff16145b15611900575f826005015483600401546117a39190613465565b90505f612710600760149054906101000a900461ffff1661ffff16836117c9919061365f565b6117d391906136cd565b90505f8111156118fd575f60075f9054906101000a900473ffffffffffffffffffffffffffffffffffffffff1673ffffffffffffffffffffffffffffffffffffffff16826040516118239061375d565b5f6040518083038185875af1925050503d805f811461185d576040519150601f19603f3d011682016040523d82523d5f602084013e611862565b606091505b50509050806118a6576040517f08c379a000000000000000000000000000000000000000000000000000000000815260040161189d90613d90565b60405180910390fd5b60018560060160016101000a81548160ff021916908315150217905550877fb4d6a97bdd3b0279677829534375db2695a0fb46143b58f29faeead6ccf6f9cd836040516118f39190612fa3565b60405180910390a2505b50505b6001826006015f6101000a81548160ff021916908315150217905550847f726a84ca9508bc683f27c8c61d384dbf8c12a5d70a30e2ba5cd39cd9fdf0c0e58360060160029054906101000a900460ff168360405161195f929190613dae565b60405180910390a25050505050565b611976612af4565b5f73ffffffffffffffffffffffffffffffffffffffff168273ffffffffffffffffffffffffffffffffffffffff16036119e4576040517f08c379a00000000000000000000000000000000000000000000000000000000081526004016119db90613e1f565b60405180910390fd5b47811115611a27576040517f08c379a0000000000000000000000000000000000000000000000000000000008152600401611a1e90613e87565b60405180910390fd5b5f6005541115611aa05760025f6001600554611a4391906136fd565b81526020019081526020015f206006015f9054906101000a900460ff16611a9f576040517f08c379a0000000000000000000000000000000000000000000000000000000008152600401611a9690613eef565b60405180910390fd5b5b5f8273ffffffffffffffffffffffffffffffffffffffff1682604051611ac59061375d565b5f6040518083038185875af1925050503d805f8114611aff576040519150601f19603f3d011682016040523d82523d5f602084013e611b04565b606091505b5050905080611b48576040517f08c379a0000000000000000000000000000000000000000000000000000000008152600401611b3f90613f57565b60405180910390fd5b505050565b611b55612b7b565b806005548110611b9a576040517f08c379a0000000000000000000000000000000000000000000000000000000008152600401611b9190613509565b60405180910390fd5b8160025f8281526020019081526020015f206006015f9054906101000a900460ff1615611bfc576040517f08c379a0000000000000000000000000000000000000000000000000000000008152600401611bf3906138c6565b60405180910390fd5b5f60025f8581526020019081526020015f209050806002015f9054906101000a900467ffffffffffffffff1667ffffffffffffffff16421015611c74576040517f08c379a0000000000000000000000000000000000000000000000000000000008152600401611c6b9061392e565b60405180910390fd5b8060020160089054906101000a900467ffffffffffffffff1667ffffffffffffffff164210611cd8576040517f08c379a0000000000000000000000000000000000000000000000000000000008152600401611ccf90613996565b60405180910390fd5b5f3411611d1a576040517f08c379a0000000000000000000000000000000000000000000000000000000008152600401611d11906139fe565b60405180910390fd5b683635c9adc5dea00000341115611d66576040517f08c379a0000000000000000000000000000000000000000000000000000000008152600401611d5d90613a66565b60405180910390fd5b5f8160020160189054906101000a900460070b60070b148015611daa5750806002015f9054906101000a900467ffffffffffffffff1667ffffffffffffffff164210155b15611ec7575f60065f9054906101000a900473ffffffffffffffffffffffffffffffffffffffff1673ffffffffffffffffffffffffffffffffffffffff16635e8f4816836001015460b46040518363ffffffff1660e01b8152600401611e11929190613a84565b6040805180830381865afa158015611e2b573d5f803e3d5ffd5b505050506040513d601f19601f82011682018060405250810190611e4f9190613aff565b5090505f8160070b13611e97576040517f08c379a0000000000000000000000000000000000000000000000000000000008152600401611e8e90613b87565b60405180910390fd5b808260020160186101000a81548167ffffffffffffffff021916908360070b67ffffffffffffffff160217905550505b3460035f8681526020019081526020015f205f3373ffffffffffffffffffffffffffffffffffffffff1673ffffffffffffffffffffffffffffffffffffffff1681526020019081526020015f205f828254611f229190613465565b9250508190555034816004015f828254611f3c9190613465565b925050819055503373ffffffffffffffffffffffffffffffffffffffff16847f4f1eed5e863a822b0f9eb960dfdab2cc5a99beec4b191f2a7a9c7e28e5a15524600134604051611f8d929190613fae565b60405180910390a3505050611fa0612bbf565b50565b6003602052815f5260405f20602052805f5260405f205f91509150505481565b5f47905090565b611fd2612af4565b611fdb5f612bc8565b565b60085f9054906101000a900473ffffffffffffffffffffffffffffffffffffffff1681565b61200a612af4565b5f73ffffffffffffffffffffffffffffffffffffffff168173ffffffffffffffffffffffffffffffffffffffff1603612078576040517f08c379a000000000000000000000000000000000000000000000000000000000815260040161206f9061401f565b60405180910390fd5b8060065f6101000a81548173ffffffffffffffffffffffffffffffffffffffff021916908373ffffffffffffffffffffffffffffffffffffffff16021790555050565b60065f9054906101000a900473ffffffffffffffffffffffffffffffffffffffff1681565b683635c9adc5dea0000081565b603c81565b6002602052805f5260405f205f91509050805f015490806001015490806002015f9054906101000a900467ffffffffffffffff16908060020160089054906101000a900467ffffffffffffffff16908060020160109054906101000a900467ffffffffffffffff16908060020160189054906101000a900460070b90806003015f9054906101000a900460070b90806004015490806005015490806006015f9054906101000a900460ff16908060060160019054906101000a900460ff16908060060160029054906101000a900460ff1690508c565b5f60015f9054906101000a900473ffffffffffffffffffffffffffffffffffffffff16905090565b6121f8612c92565b600554821061223c576040517f08c379a000000000000000000000000000000000000000000000000000000000815260040161223390613509565b60405180910390fd5b60025f8381526020019081526020015f20604051806101800160405290815f820154815260200160018201548152602001600282015f9054906101000a900467ffffffffffffffff1667ffffffffffffffff1667ffffffffffffffff1681526020016002820160089054906101000a900467ffffffffffffffff1667ffffffffffffffff1667ffffffffffffffff1681526020016002820160109054906101000a900467ffffffffffffffff1667ffffffffffffffff1667ffffffffffffffff1681526020016002820160189054906101000a900460070b60070b60070b8152602001600382015f9054906101000a900460070b60070b60070b81526020016004820154815260200160058201548152602001600682015f9054906101000a900460ff161515151581526020016006820160019054906101000a900460ff161515151581526020016006820160029054906101000a900460ff1660ff1660ff16815250509050919050565b60b481565b6123b4612b7b565b8060095f3373ffffffffffffffffffffffffffffffffffffffff1673ffffffffffffffffffffffffffffffffffffffff1681526020019081526020015f20541015612434576040517f08c379a000000000000000000000000000000000000000000000000000000000815260040161242b90614087565b60405180910390fd5b80471015612477576040517f08c379a000000000000000000000000000000000000000000000000000000000815260040161246e906140ef565b60405180910390fd5b8060095f3373ffffffffffffffffffffffffffffffffffffffff1673ffffffffffffffffffffffffffffffffffffffff1681526020019081526020015f205f8282546124c391906136fd565b925050819055505f3373ffffffffffffffffffffffffffffffffffffffff16826040516124ef9061375d565b5f6040518083038185875af1925050503d805f8114612529576040519150601f19603f3d011682016040523d82523d5f602084013e61252e565b606091505b5050905080612572576040517f08c379a0000000000000000000000000000000000000000000000000000000008152600401612569906137bb565b60405180910390fd5b5061257b612bbf565b50565b6004602052815f5260405f20602052805f5260405f205f91509150505481565b6125a6612af4565b5f4290505f6032826125b89190613841565b90505f603c836125c89190613841565b90506125d684848484612707565b50505050565b603281565b61271081565b6125ef612af4565b5f73ffffffffffffffffffffffffffffffffffffffff168273ffffffffffffffffffffffffffffffffffffffff160361265d576040517f08c379a000000000000000000000000000000000000000000000000000000000815260040161265490614157565b60405180910390fd5b6101f48161ffff1611156126a6576040517f08c379a000000000000000000000000000000000000000000000000000000000815260040161269d906141bf565b60405180910390fd5b8160075f6101000a81548173ffffffffffffffffffffffffffffffffffffffff021916908373ffffffffffffffffffffffffffffffffffffffff16021790555080600760146101000a81548161ffff021916908361ffff1602179055505050565b61270f612af4565b8267ffffffffffffffff168267ffffffffffffffff1611612765576040517f08c379a000000000000000000000000000000000000000000000000000000000815260040161275c90614227565b60405180910390fd5b8167ffffffffffffffff168167ffffffffffffffff16116127bb576040517f08c379a00000000000000000000000000000000000000000000000000000000081526004016127b29061428f565b60405180910390fd5b428167ffffffffffffffff1611612807576040517f08c379a00000000000000000000000000000000000000000000000000000000081526004016127fe906142f7565b60405180910390fd5b5f60055f81548092919061281a90614315565b9190505590506040518061018001604052808281526020018681526020018567ffffffffffffffff1681526020018467ffffffffffffffff1681526020018367ffffffffffffffff1681526020015f60070b81526020015f60070b81526020015f81526020015f81526020015f151581526020015f151581526020015f60ff1681525060025f8381526020019081526020015f205f820151815f0155602082015181600101556040820151816002015f6101000a81548167ffffffffffffffff021916908367ffffffffffffffff16021790555060608201518160020160086101000a81548167ffffffffffffffff021916908367ffffffffffffffff16021790555060808201518160020160106101000a81548167ffffffffffffffff021916908367ffffffffffffffff16021790555060a08201518160020160186101000a81548167ffffffffffffffff021916908360070b67ffffffffffffffff16021790555060c0820151816003015f6101000a81548167ffffffffffffffff021916908360070b67ffffffffffffffff16021790555060e082015181600401556101008201518160050155610120820151816006015f6101000a81548160ff0219169083151502179055506101408201518160060160016101000a81548160ff0219169083151502179055506101608201518160060160026101000a81548160ff021916908360ff16021790555090505084817f744a589c072388e9919c12610afce492f02fd882378c76881611f7fd885163ee8686865f604051612a619493929190614395565b60405180910390a35050505050565b612a78612af4565b5f73ffffffffffffffffffffffffffffffffffffffff168173ffffffffffffffffffffffffffffffffffffffff1603612ae8575f6040517f1e4fbdf7000000000000000000000000000000000000000000000000000000008152600401612adf9190612fcb565b60405180910390fd5b612af181612bc8565b50565b612afc612c8b565b73ffffffffffffffffffffffffffffffffffffffff16612b1a6121c8565b73ffffffffffffffffffffffffffffffffffffffff1614612b7957612b3d612c8b565b6040517f118cdaa7000000000000000000000000000000000000000000000000000000008152600401612b709190612fcb565b60405180910390fd5b565b60025f5403612bb6576040517f3ee5aeb500000000000000000000000000000000000000000000000000000000815260040160405180910390fd5b60025f81905550565b60015f81905550565b5f60015f9054906101000a900473ffffffffffffffffffffffffffffffffffffffff1690508160015f6101000a81548173ffffffffffffffffffffffffffffffffffffffff021916908373ffffffffffffffffffffffffffffffffffffffff1602179055508173ffffffffffffffffffffffffffffffffffffffff168173ffffffffffffffffffffffffffffffffffffffff167f8be0079c531659141344cd1fd0a4f28419497f9722a3daafe3b4186f6b6457e060405160405180910390a35050565b5f33905090565b6040518061018001604052805f81526020015f80191681526020015f67ffffffffffffffff1681526020015f67ffffffffffffffff1681526020015f67ffffffffffffffff1681526020015f60070b81526020015f60070b81526020015f81526020015f81526020015f151581526020015f151581526020015f60ff1681525090565b5f80fd5b5f73ffffffffffffffffffffffffffffffffffffffff82169050919050565b5f612d4282612d19565b9050919050565b612d5281612d38565b8114612d5c575f80fd5b50565b5f81359050612d6d81612d49565b92915050565b5f819050919050565b612d8581612d73565b8114612d8f575f80fd5b50565b5f81359050612da081612d7c565b92915050565b5f67ffffffffffffffff82169050919050565b612dc281612da6565b8114612dcc575f80fd5b50565b5f81359050612ddd81612db9565b92915050565b5f805f60608486031215612dfa57612df9612d15565b5b5f612e0786828701612d5f565b9350506020612e1886828701612d92565b9250506040612e2986828701612dcf565b9150509250925092565b5f8060408385031215612e4957612e48612d15565b5b5f612e5685828601612d92565b9250506020612e6785828601612d5f565b9150509250929050565b612e7a81612d73565b82525050565b5f604082019050612e935f830185612e71565b612ea06020830184612e71565b9392505050565b5f60208284031215612ebc57612ebb612d15565b5b5f612ec984828501612d5f565b91505092915050565b5f61ffff82169050919050565b612ee881612ed2565b82525050565b5f602082019050612f015f830184612edf565b92915050565b5f60208284031215612f1c57612f1b612d15565b5b5f612f2984828501612d92565b91505092915050565b5f819050919050565b612f4481612f32565b8114612f4e575f80fd5b50565b5f81359050612f5f81612f3b565b92915050565b5f8060408385031215612f7b57612f7a612d15565b5b5f612f8885828601612f51565b9250506020612f9985828601612dcf565b9150509250929050565b5f602082019050612fb65f830184612e71565b92915050565b612fc581612d38565b82525050565b5f602082019050612fde5f830184612fbc565b92915050565b5f8060408385031215612ffa57612ff9612d15565b5b5f61300785828601612d5f565b925050602061301885828601612d92565b9150509250929050565b61302b81612da6565b82525050565b5f6020820190506130445f830184613022565b92915050565b61305381612f32565b82525050565b5f8160070b9050919050565b61306e81613059565b82525050565b5f8115159050919050565b61308881613074565b82525050565b5f60ff82169050919050565b6130a38161308e565b82525050565b5f610180820190506130bd5f83018f612e71565b6130ca602083018e61304a565b6130d7604083018d613022565b6130e4606083018c613022565b6130f1608083018b613022565b6130fe60a083018a613065565b61310b60c0830189613065565b61311860e0830188612e71565b613126610100830187612e71565b61313461012083018661307f565b61314261014083018561307f565b61315061016083018461309a565b9d9c50505050505050505050505050565b61316a81612d73565b82525050565b61317981612f32565b82525050565b61318881612da6565b82525050565b61319781613059565b82525050565b6131a681613074565b82525050565b6131b58161308e565b82525050565b61018082015f8201516131d05f850182613161565b5060208201516131e36020850182613170565b5060408201516131f6604085018261317f565b506060820151613209606085018261317f565b50608082015161321c608085018261317f565b5060a082015161322f60a085018261318e565b5060c082015161324260c085018261318e565b5060e082015161325560e0850182613161565b5061010082015161326a610100850182613161565b5061012082015161327f61012085018261319d565b5061014082015161329461014085018261319d565b506101608201516132a96101608501826131ac565b50505050565b5f610180820190506132c35f8301846131bb565b92915050565b5f602082840312156132de576132dd612d15565b5b5f6132eb84828501612f51565b91505092915050565b6132fd81612ed2565b8114613307575f80fd5b50565b5f81359050613318816132f4565b92915050565b5f806040838503121561333457613333612d15565b5b5f61334185828601612d5f565b92505060206133528582860161330a565b9150509250929050565b5f805f806080858703121561337457613373612d15565b5b5f61338187828801612f51565b945050602061339287828801612dcf565b93505060406133a387828801612dcf565b92505060606133b487828801612dcf565b91505092959194509250565b5f82825260208201905092915050565b7f4f6e6c79204343495020726563656976657200000000000000000000000000005f82015250565b5f6134046012836133c0565b915061340f826133d0565b602082019050919050565b5f6020820190508181035f830152613431816133f8565b9050919050565b7f4e487b71000000000000000000000000000000000000000000000000000000005f52601160045260245ffd5b5f61346f82612d73565b915061347a83612d73565b925082820190508082111561349257613491613438565b5b92915050565b5f6040820190506134ab5f830185612e71565b6134b86020830184613022565b9392505050565b7f526f756e6420646f6573206e6f742065786973740000000000000000000000005f82015250565b5f6134f36014836133c0565b91506134fe826134bf565b602082019050919050565b5f6020820190508181035f830152613520816134e7565b9050919050565b7f526f756e64206e6f74207265736f6c76656400000000000000000000000000005f82015250565b5f61355b6012836133c0565b915061356682613527565b602082019050919050565b5f6020820190508181035f8301526135888161354f565b9050919050565b7f4e6f207374616b6520746f20636c61696d0000000000000000000000000000005f82015250565b5f6135c36011836133c0565b91506135ce8261358f565b602082019050919050565b5f6020820190508181035f8301526135f0816135b7565b9050919050565b7f4e6f2077696e6e657273000000000000000000000000000000000000000000005f82015250565b5f61362b600a836133c0565b9150613636826135f7565b602082019050919050565b5f6020820190508181035f8301526136588161361f565b9050919050565b5f61366982612d73565b915061367483612d73565b925082820261368281612d73565b9150828204841483151761369957613698613438565b5b5092915050565b7f4e487b71000000000000000000000000000000000000000000000000000000005f52601260045260245ffd5b5f6136d782612d73565b91506136e283612d73565b9250826136f2576136f16136a0565b5b828204905092915050565b5f61370782612d73565b915061371283612d73565b925082820390508181111561372a57613729613438565b5b92915050565b5f81905092915050565b50565b5f6137485f83613730565b91506137538261373a565b5f82019050919050565b5f6137678261373d565b9150819050919050565b7f48424152207472616e73666572206661696c65640000000000000000000000005f82015250565b5f6137a56014836133c0565b91506137b082613771565b602082019050919050565b5f6020820190508181035f8301526137d281613799565b9050919050565b7f5374617274206d757374206265206e6f772f66757475726500000000000000005f82015250565b5f61380d6018836133c0565b9150613818826137d9565b602082019050919050565b5f6020820190508181035f83015261383a81613801565b9050919050565b5f61384b82612da6565b915061385683612da6565b9250828201905067ffffffffffffffff81111561387657613875613438565b5b92915050565b7f526f756e6420616c7265616479207265736f6c766564000000000000000000005f82015250565b5f6138b06016836133c0565b91506138bb8261387c565b602082019050919050565b5f6020820190508181035f8301526138dd816138a4565b9050919050565b7f526f756e64206e6f7420737461727465640000000000000000000000000000005f82015250565b5f6139186011836133c0565b9150613923826138e4565b602082019050919050565b5f6020820190508181035f8301526139458161390c565b9050919050565b7f42657474696e6720706572696f6420656e6465640000000000000000000000005f82015250565b5f6139806014836133c0565b915061398b8261394c565b602082019050919050565b5f6020820190508181035f8301526139ad81613974565b9050919050565b7f42657420616d6f756e74206d75737420626520706f73697469766500000000005f82015250565b5f6139e8601b836133c0565b91506139f3826139b4565b602082019050919050565b5f6020820190508181035f830152613a15816139dc565b9050919050565b7f42657420616d6f756e7420746f6f2068696768000000000000000000000000005f82015250565b5f613a506013836133c0565b9150613a5b82613a1c565b602082019050919050565b5f6020820190508181035f830152613a7d81613a44565b9050919050565b5f604082019050613a975f83018561304a565b613aa46020830184612e71565b9392505050565b613ab481613059565b8114613abe575f80fd5b50565b5f81519050613acf81613aab565b92915050565b613ade8161308e565b8114613ae8575f80fd5b50565b5f81519050613af981613ad5565b92915050565b5f8060408385031215613b1557613b14612d15565b5b5f613b2285828601613ac1565b9250506020613b3385828601613aeb565b9150509250929050565b7f496e76616c6964207265666572656e63652070726963650000000000000000005f82015250565b5f613b716017836133c0565b9150613b7c82613b3d565b602082019050919050565b5f6020820190508181035f830152613b9e81613b65565b9050919050565b5f819050919050565b5f819050919050565b5f613bd1613bcc613bc784613ba5565b613bae565b61308e565b9050919050565b613be181613bb7565b82525050565b5f604082019050613bfa5f830185613bd8565b613c076020830184612e71565b9392505050565b7f5265736f6c76652074696d65206e6f74207265616368656400000000000000005f82015250565b5f613c426018836133c0565b9150613c4d82613c0e565b602082019050919050565b5f6020820190508181035f830152613c6f81613c36565b9050919050565b7f526566207072696365206e6f74207365740000000000000000000000000000005f82015250565b5f613caa6011836133c0565b9150613cb582613c76565b602082019050919050565b5f6020820190508181035f830152613cd781613c9e565b9050919050565b7f496e76616c696420736574746c656d656e7420707269636500000000000000005f82015250565b5f613d126018836133c0565b9150613d1d82613cde565b602082019050919050565b5f6020820190508181035f830152613d3f81613d06565b9050919050565b7f466565207472616e73666572206661696c6564000000000000000000000000005f82015250565b5f613d7a6013836133c0565b9150613d8582613d46565b602082019050919050565b5f6020820190508181035f830152613da781613d6e565b9050919050565b5f604082019050613dc15f83018561309a565b613dce6020830184613065565b9392505050565b7f496e76616c6964206164647265737300000000000000000000000000000000005f82015250565b5f613e09600f836133c0565b9150613e1482613dd5565b602082019050919050565b5f6020820190508181035f830152613e3681613dfd565b9050919050565b7f496e73756666696369656e742062616c616e63650000000000000000000000005f82015250565b5f613e716014836133c0565b9150613e7c82613e3d565b602082019050919050565b5f6020820190508181035f830152613e9e81613e65565b9050919050565b7f4f70656e20726f756e64732065786973740000000000000000000000000000005f82015250565b5f613ed96011836133c0565b9150613ee482613ea5565b602082019050919050565b5f6020820190508181035f830152613f0681613ecd565b9050919050565b7f7265636f766572206661696c65640000000000000000000000000000000000005f82015250565b5f613f41600e836133c0565b9150613f4c82613f0d565b602082019050919050565b5f6020820190508181035f830152613f6e81613f35565b9050919050565b5f819050919050565b5f613f98613f93613f8e84613f75565b613bae565b61308e565b9050919050565b613fa881613f7e565b82525050565b5f604082019050613fc15f830185613f9f565b613fce6020830184612e71565b9392505050565b7f496e76616c6964206f7261636c652061646472657373000000000000000000005f82015250565b5f6140096016836133c0565b915061401482613fd5565b602082019050919050565b5f6020820190508181035f83015261403681613ffd565b9050919050565b7f496e73756666696369656e7420637265646974730000000000000000000000005f82015250565b5f6140716014836133c0565b915061407c8261403d565b602082019050919050565b5f6020820190508181035f83015261409e81614065565b9050919050565b7f496e73756666696369656e7420636f6e74726163742062616c616e63650000005f82015250565b5f6140d9601d836133c0565b91506140e4826140a5565b602082019050919050565b5f6020820190508181035f830152614106816140cd565b9050919050565b7f496e76616c6964206665652073696e6b206164647265737300000000000000005f82015250565b5f6141416018836133c0565b915061414c8261410d565b602082019050919050565b5f6020820190508181035f83015261416e81614135565b9050919050565b7f46656520746f6f206869676800000000000000000000000000000000000000005f82015250565b5f6141a9600c836133c0565b91506141b482614175565b602082019050919050565b5f6020820190508181035f8301526141d68161419d565b9050919050565b7f4c6f636b2074696d65206d7573742062652061667465722073746172740000005f82015250565b5f614211601d836133c0565b915061421c826141dd565b602082019050919050565b5f6020820190508181035f83015261423e81614205565b9050919050565b7f5265736f6c76652074696d65206d757374206265206166746572206c6f636b005f82015250565b5f614279601f836133c0565b915061428482614245565b602082019050919050565b5f6020820190508181035f8301526142a68161426d565b9050919050565b7f5265736f6c76652074696d65206d75737420626520696e2066757475726500005f82015250565b5f6142e1601e836133c0565b91506142ec826142ad565b602082019050919050565b5f6020820190508181035f83015261430e816142d5565b9050919050565b5f61431f82612d73565b91507fffffffffffffffffffffffffffffffffffffffffffffffffffffffffffffffff820361435157614350613438565b5b600182019050919050565b5f819050919050565b5f61437f61437a6143758461435c565b613bae565b613059565b9050919050565b61438f81614365565b82525050565b5f6080820190506143a85f830187613022565b6143b56020830186613022565b6143c26040830185613022565b6143cf6060830184614386565b9594505050505056fea2646970667358221220f139479b6121b0470a6616c3b11852b21c69c457025a8e1381ad7f0dec9563ff64736f6c63430008180033",
  "linkReferences": {},
  "deployedLinkReferences": {},
  "immutableReferences": {},
  "inputSourceName": "project/contracts/EscrowGame.sol",
  "buildInfoId": "solc-0_8_24-bc3a8eed72f778837304b0ae2d99f87fb40d7508"
}