{
  "_format": "hh3-artifact-1",
  "contractName": "OracleAdapter",
  "sourceName": "contracts/OracleAdapter.sol",
  "abi": [
    {
      "inputs": [],
      "stateMutability": "nonpayable",
      "type": "constructor"
    },
    {
      "anonymous": false,
      "inputs": [
        {
          "indexed": true,
          "internalType": "address",
          "name": "previousOwner",
          "type": "address"
        },
        {
          "indexed": true,
          "internalType": "address",
          "name": "newOwner",
          "type": "address"
        }
      ],
      "name": "OwnershipTransferred",
      "type": "event"
    },
    {
      "anonymous": false,
      "inputs": [
        {
          "indexed": true,
          "internalType": "bytes32",
          "name": "market",
          "type": "bytes32"
        },
        {
          "indexed": false,
          "internalType": "int64",
          "name": "price",
          "type": "int64"
        },
        {
          "indexed": false,
          "internalType": "uint8",
          "name": "decimals",
          "type": "uint8"
        },
        {
          "indexed": false,
          "internalType": "uint256",
          "name": "timestamp",
          "type": "uint256"
        }
      ],
      "name": "PriceUpdated",
      "type": "event"
    },
    {
      "inputs": [],
      "name": "BTC_USD",
      "outputs": [
        {
          "internalType": "bytes32",
          "name": "",
          "type": "bytes32"
        }
      ],
      "stateMutability": "view",
      "type": "function"
    },
    {
      "inputs": [],
      "name": "DEFAULT_MAX_AGE",
      "outputs": [
        {
          "internalType": "uint256",
          "name": "",
          "type": "uint256"
        }
      ],
      "stateMutability": "view",
      "type": "function"
    },
    {
      "inputs": [],
      "name": "ETH_USD",
      "outputs": [
        {
          "internalType": "bytes32",
          "name": "",
          "type": "bytes32"
        }
      ],
      "stateMutability": "view",
      "type": "function"
    },
    {
      "inputs": [],
      "name": "HBAR_USD",
      "outputs": [
        {
          "internalType": "bytes32",
          "name": "",
          "type": "bytes32"
        }
      ],
      "stateMutability": "view",
      "type": "function"
    },
    {
      "inputs": [],
      "name": "TARGET_DECIMALS",
      "outputs": [
        {
          "internalType": "uint8",
          "name": "",
          "type": "uint8"
        }
      ],
      "stateMutability": "view",
      "type": "function"
    },
    {
      "inputs": [],
      "name": "getAvailableMarkets",
      "outputs": [
        {
          "internalType": "bytes32[]",
          "name": "markets",
          "type": "bytes32[]"
        }
      ],
      "stateMutability": "pure",
      "type": "function"
    },
    {
      "inputs": [
        {
          "internalType": "bytes32",
          "name": "market",
          "type": "bytes32"
        }
      ],
      "name": "getPrice",
      "outputs": [
        {
          "internalType": "int64",
          "name": "price",
          "type": "int64"
        },
        {
          "internalType": "uint8",
          "name": "decimals",
          "type": "uint8"
        },
        {
          "internalType": "uint256",
          "name": "lastUpdate",
          "type": "uint256"
        }
      ],
      "stateMutability": "view",
      "type": "function"
    },
    {
      "inputs": [
        {
          "internalType": "bytes32",
          "name": "market",
          "type": "bytes32"
        }
      ],
      "name": "getPriceFormatted",
      "outputs": [
        {
          "internalType": "string",
          "name": "priceFormatted",
          "type": "string"
        },
        {
          "internalType": "uint8",
          "name": "decimals",
          "type": "uint8"
        }
      ],
      "stateMutability": "view",
      "type": "function"
    },
    {
      "inputs": [
        {
          "internalType": "bytes32",
          "name": "market",
          "type": "bytes32"
        },
        {
          "internalType": "uint256",
          "name": "maxAge",
          "type": "uint256"
        }
      ],
      "name": "getPriceWithFreshness",
      "outputs": [
        {
          "internalType": "int64",
          "name": "price",
          "type": "int64"
        },
        {
          "internalType": "uint8",
          "name": "decimals",
          "type": "uint8"
        }
      ],
      "stateMutability": "view",
      "type": "function"
    },
    {
      "inputs": [
        {
          "internalType": "bytes32",
          "name": "market",
          "type": "bytes32"
        }
      ],
      "name": "isMarketSupported",
      "outputs": [
        {
          "internalType": "bool",
          "name": "supported",
          "type": "bool"
        }
      ],
      "stateMutability": "view",
      "type": "function"
    },
    {
      "inputs": [],
      "name": "owner",
      "outputs": [
        {
          "internalType": "address",
          "name": "",
          "type": "address"
        }
      ],
      "stateMutability": "view",
      "type": "function"
    },
    {
      "inputs": [
        {
          "internalType": "bytes32",
          "name": "",
          "type": "bytes32"
        }
      ],
      "name": "priceIdByMarket",
      "outputs": [
        {
          "internalType": "bytes32",
          "name": "",
          "type": "bytes32"
        }
      ],
      "stateMutability": "view",
      "type": "function"
    },
    {
      "inputs": [
        {
          "internalType": "bytes32",
          "name": "",
          "type": "bytes32"
        }
      ],
      "name": "prices",
      "outputs": [
        {
          "internalType": "int64",
          "name": "price",
          "type": "int64"
        },
        {
          "internalType": "uint8",
          "name": "decimals",
          "type": "uint8"
        },
        {
          "internalType": "uint256",
          "name": "lastUpdate",
          "type": "uint256"
        },
        {
          "internalType": "bool",
          "name": "isValid",
          "type": "bool"
        }
      ],
      "stateMutability": "view",
      "type": "function"
    },
    {
      "inputs": [],
      "name": "pyth",
      "outputs": [
        {
          "internalType": "address",
          "name": "",
          "type": "address"
        }
      ],
      "stateMutability": "view",
      "type": "function"
    },
    {
      "inputs": [
        {
          "internalType": "bytes32",
          "name": "market",
          "type": "bytes32"
        },
        {
          "internalType": "bytes32",
          "name": "priceId",
          "type": "bytes32"
        }
      ],
      "name": "setMarketPriceId",
      "outputs": [],
      "stateMutability": "nonpayable",
      "type": "function"
    },
    {
      "inputs": [
        {
          "internalType": "address",
          "name": "_pyth",
          "type": "address"
        }
      ],
      "name": "setPyth",
      "outputs": [],
      "stateMutability": "nonpayable",
      "type": "function"
    },
    {
      "inputs": [
        {
          "internalType": "address",
          "name": "newOwner",
          "type": "address"
        }
      ],
      "name": "transferOwnership",
      "outputs": [],
      "stateMutability": "nonpayable",
      "type": "function"
    },
    {
      "inputs": [
        {
          "internalType": "bytes32",
          "name": "market",
          "type": "bytes32"
        },
        {
          "internalType": "int64",
          "name": "price",
          "type": "int64"
        },
        {
          "internalType": "uint8",
          "name": "decimals",
          "type": "uint8"
        }
      ],
      "name": "updatePrice",
      "outputs": [],
      "stateMutability": "nonpayable",
      "type": "function"
    },
    {
      "inputs": [
        {
          "internalType": "bytes32[]",
          "name": "markets",
          "type": "bytes32[]"
        },
        {
          "internalType": "int64[]",
          "name": "priceList",
          "type": "int64[]"
        },
        {
          "internalType": "uint8[]",
          "name": "decimalsList",
          "type": "uint8[]"
        }
      ],
      "name": "updatePricesBatch",
      "outputs": [],
      "stateMutability": "nonpayable",
      "type": "function"
    }
  ],
  "bytecode": "0x608060405234801562000010575f80fd5b503360015f6101000a81548173ffffffffffffffffffffffffffffffffffffffff021916908373ffffffffffffffffffffffffffffffffffffffff160217905550620000887f2c03d7a88d6c4e746533bd35d9f7ce1aa75edffbd08c0dbec4e217d008cfa908624c4b4060086200015960201b60201c565b620000c17f0b43555ace6b39aae1b894097d0a9fc17f504c62fea598fa206cc6f5088e6e45642e90edd00060086200015960201b60201c565b620000fb7fee62665949c883f9e0f6f002eac32e00bd59dfe6c34e92a91c37d6a8322d6489650417bce6c80060086200015960201b60201c565b7fe62df6c8b4a85fe1a67db44dc12de5db330f7ac66b72dc658afedf0f4a415b435f1b60035f7fee62665949c883f9e0f6f002eac32e00bd59dfe6c34e92a91c37d6a8322d648981526020019081526020015f20819055506200045e565b5f8260070b13620001a1576040517f08c379a0000000000000000000000000000000000000000000000000000000008152600401620001989062000341565b60405180910390fd5b60128160ff161115620001eb576040517f08c379a0000000000000000000000000000000000000000000000000000000008152600401620001e290620003af565b60405180910390fd5b60405180608001604052808360070b81526020018260ff168152602001428152602001600115158152505f808581526020019081526020015f205f820151815f015f6101000a81548167ffffffffffffffff021916908360070b67ffffffffffffffff1602179055506020820151815f0160086101000a81548160ff021916908360ff160217905550604082015181600101556060820151816002015f6101000a81548160ff021916908315150217905550905050827f811882eed432a6350dc90c2f76aedda5b0fa10edb7fe47b4adf237173cfe2ee2838342604051620002d69392919062000423565b60405180910390a2505050565b5f82825260208201905092915050565b7f5072696365206d75737420626520706f736974697665000000000000000000005f82015250565b5f62000329601683620002e3565b91506200033682620002f3565b602082019050919050565b5f6020820190508181035f8301526200035a816200031b565b9050919050565b7f546f6f206d616e7920646563696d616c730000000000000000000000000000005f82015250565b5f62000397601183620002e3565b9150620003a48262000361565b602082019050919050565b5f6020820190508181035f830152620003c88162000389565b9050919050565b5f8160070b9050919050565b620003e681620003cf565b82525050565b5f60ff82169050919050565b6200040381620003ec565b82525050565b5f819050919050565b6200041d8162000409565b82525050565b5f606082019050620004385f830186620003db565b620004476020830185620003f8565b62000456604083018462000412565b949350505050565b612b19806200046c5f395ff3fe608060405234801561000f575f80fd5b506004361061011f575f3560e01c80638da5cb5b116100ab578063d8f096811161006f578063d8f0968114610323578063ee22fd6f1461033f578063f12fd41e1461035b578063f2fde38b1461038c578063f98d06f0146103a85761011f565b80638da5cb5b1461027d57806399da74791461029b578063a7f0469c146102cb578063c99013c2146102e9578063d410c765146103055761011f565b80635e8f4816116100f25780635e8f4816146101ad57806360846bc6146101de5780636260f55b1461021157806378f504f91461022f5780638670588b1461025f5761011f565b806303ab789214610123578063288034b51461014157806331d98b3f1461015f578063531d965d14610191575b5f80fd5b61012b6103c6565b60405161013891906117eb565b60405180910390f35b6101496103ea565b60405161015691906117eb565b60405180910390f35b6101796004803603810190610174919061183f565b61040e565b604051610188939291906118b8565b60405180910390f35b6101ab60048036038101906101a691906119f8565b61062c565b005b6101c760048036038101906101c29190611ad2565b6107a8565b6040516101d5929190611b10565b60405180910390f35b6101f860048036038101906101f3919061183f565b610a06565b6040516102089493929190611b51565b60405180910390f35b610219610a55565b60405161022691906117eb565b60405180910390f35b6102496004803603810190610244919061183f565b610a79565b6040516102569190611b94565b60405180910390f35b610267610aa1565b6040516102749190611bad565b60405180910390f35b610285610aa6565b6040516102929190611c05565b60405180910390f35b6102b560048036038101906102b0919061183f565b610acb565b6040516102c291906117eb565b60405180910390f35b6102d3610ae0565b6040516102e09190611c1e565b60405180910390f35b61030360048036038101906102fe9190611c37565b610ae7565b005b61030d610be3565b60405161031a9190611d2c565b60405180910390f35b61033d60048036038101906103389190611da0565b610cf6565b005b61035960048036038101906103549190611e1a565b610d95565b005b6103756004803603810190610370919061183f565b610ed5565b604051610383929190611ecf565b60405180910390f35b6103a660048036038101906103a19190611e1a565b611053565b005b6103b0611213565b6040516103bd9190611c05565b60405180910390f35b7fee62665949c883f9e0f6f002eac32e00bd59dfe6c34e92a91c37d6a8322d648981565b7f2c03d7a88d6c4e746533bd35d9f7ce1aa75edffbd08c0dbec4e217d008cfa90881565b5f805f8073ffffffffffffffffffffffffffffffffffffffff1660025f9054906101000a900473ffffffffffffffffffffffffffffffffffffffff1673ffffffffffffffffffffffffffffffffffffffff1614610552575f60035f8681526020019081526020015f205490505f801b8114610550575f60025f9054906101000a900473ffffffffffffffffffffffffffffffffffffffff1673ffffffffffffffffffffffffffffffffffffffff1663a4ae35e083620151806040518363ffffffff1660e01b81526004016104e3929190611efd565b608060405180830381865afa1580156104fe573d5f803e3d5ffd5b505050506040513d601f19601f8201168201806040525081019061052291906120b0565b90505f610538825f015183604001516008611238565b90508060088360600151955095509550505050610625565b505b5f805f8681526020019081526020015f206040518060800160405290815f82015f9054906101000a900460070b60070b60070b81526020015f820160089054906101000a900460ff1660ff1660ff16815260200160018201548152602001600282015f9054906101000a900460ff1615151515815250509050806060015161060f576040517f08c379a000000000000000000000000000000000000000000000000000000000815260040161060690612125565b60405180910390fd5b805f015181602001518260400151935093509350505b9193909250565b60015f9054906101000a900473ffffffffffffffffffffffffffffffffffffffff1673ffffffffffffffffffffffffffffffffffffffff163373ffffffffffffffffffffffffffffffffffffffff16146106bb576040517f08c379a00000000000000000000000000000000000000000000000000000000081526004016106b29061218d565b60405180910390fd5b5f86869050905080858590501480156106d657508083839050145b610715576040517f08c379a000000000000000000000000000000000000000000000000000000000815260040161070c906121f5565b60405180910390fd5b5f5b8181101561079e5761079188888381811061073557610734612213565b5b9050602002013587878481811061074f5761074e612213565b5b90506020020160208101906107649190612240565b86868581811061077757610776612213565b5b905060200201602081019061078c919061226b565b611349565b8080600101915050610717565b5050505050505050565b5f805f73ffffffffffffffffffffffffffffffffffffffff1660025f9054906101000a900473ffffffffffffffffffffffffffffffffffffffff1673ffffffffffffffffffffffffffffffffffffffff16146108e1575f60035f8681526020019081526020015f205490505f801b81146108df575f60025f9054906101000a900473ffffffffffffffffffffffffffffffffffffffff1673ffffffffffffffffffffffffffffffffffffffff1663a4ae35e083876040518363ffffffff1660e01b8152600401610879929190611efd565b608060405180830381865afa158015610894573d5f803e3d5ffd5b505050506040513d601f19601f820116820180604052508101906108b891906120b0565b90505f6108ce825f015183604001516008611238565b9050806008945094505050506109ff565b505b5f805f8681526020019081526020015f206040518060800160405290815f82015f9054906101000a900460070b60070b60070b81526020015f820160089054906101000a900460ff1660ff1660ff16815260200160018201548152602001600282015f9054906101000a900460ff1615151515815250509050806060015161099e576040517f08c379a000000000000000000000000000000000000000000000000000000000815260040161099590612125565b60405180910390fd5b838160400151426109af91906122c3565b11156109f0576040517f08c379a00000000000000000000000000000000000000000000000000000000081526004016109e790612340565b60405180910390fd5b805f0151816020015192509250505b9250929050565b5f602052805f5260405f205f91509050805f015f9054906101000a900460070b90805f0160089054906101000a900460ff1690806001015490806002015f9054906101000a900460ff16905084565b7f0b43555ace6b39aae1b894097d0a9fc17f504c62fea598fa206cc6f5088e6e4581565b5f805f8381526020019081526020015f206002015f9054906101000a900460ff169050919050565b600881565b60015f9054906101000a900473ffffffffffffffffffffffffffffffffffffffff1681565b6003602052805f5260405f205f915090505481565b6201518081565b60015f9054906101000a900473ffffffffffffffffffffffffffffffffffffffff1673ffffffffffffffffffffffffffffffffffffffff163373ffffffffffffffffffffffffffffffffffffffff1614610b76576040517f08c379a0000000000000000000000000000000000000000000000000000000008152600401610b6d9061218d565b60405180910390fd5b5f801b8214158015610b8a57505f801b8114155b610bc9576040517f08c379a0000000000000000000000000000000000000000000000000000000008152600401610bc0906123a8565b60405180910390fd5b8060035f8481526020019081526020015f20819055505050565b6060600367ffffffffffffffff811115610c0057610bff611f28565b5b604051908082528060200260200182016040528015610c2e5781602001602082028036833780820191505090505b5090507f2c03d7a88d6c4e746533bd35d9f7ce1aa75edffbd08c0dbec4e217d008cfa908815f81518110610c6557610c64612213565b5b6020026020010181815250507f0b43555ace6b39aae1b894097d0a9fc17f504c62fea598fa206cc6f5088e6e4581600181518110610ca657610ca5612213565b5b6020026020010181815250507fee62665949c883f9e0f6f002eac32e00bd59dfe6c34e92a91c37d6a8322d648981600281518110610ce757610ce6612213565b5b60200260200101818152505090565b60015f9054906101000a900473ffffffffffffffffffffffffffffffffffffffff1673ffffffffffffffffffffffffffffffffffffffff163373ffffffffffffffffffffffffffffffffffffffff1614610d85576040517f08c379a0000000000000000000000000000000000000000000000000000000008152600401610d7c9061218d565b60405180910390fd5b610d90838383611349565b505050565b60015f9054906101000a900473ffffffffffffffffffffffffffffffffffffffff1673ffffffffffffffffffffffffffffffffffffffff163373ffffffffffffffffffffffffffffffffffffffff1614610e24576040517f08c379a0000000000000000000000000000000000000000000000000000000008152600401610e1b9061218d565b60405180910390fd5b5f73ffffffffffffffffffffffffffffffffffffffff168173ffffffffffffffffffffffffffffffffffffffff1603610e92576040517f08c379a0000000000000000000000000000000000000000000000000000000008152600401610e8990612410565b60405180910390fd5b8060025f6101000a81548173ffffffffffffffffffffffffffffffffffffffff021916908373ffffffffffffffffffffffffffffffffffffffff16021790555050565b60605f805f808581526020019081526020015f206040518060800160405290815f82015f9054906101000a900460070b60070b60070b81526020015f820160089054906101000a900460ff1660ff1660ff16815260200160018201548152602001600282015f9054906101000a900460ff16151515158152505090508060600151610f95576040517f08c379a0000000000000000000000000000000000000000000000000000000008152600401610f8c90612125565b60405180910390fd5b5f816020015190505f808260ff1614610fbd578160ff16600a610fb8919061255d565b610fc0565b60015b90505f835f015160070b90505f8360ff1603610fe657610fdf816114cb565b9550611044565b5f8282610ff391906125d4565b90505f83836110029190612604565b905061100d826114cb565b61101f611019836114cb565b87611649565b6040516020016110309291906126b8565b604051602081830303815290604052975050505b85839550955050505050915091565b60015f9054906101000a900473ffffffffffffffffffffffffffffffffffffffff1673ffffffffffffffffffffffffffffffffffffffff163373ffffffffffffffffffffffffffffffffffffffff16146110e2576040517f08c379a00000000000000000000000000000000000000000000000000000000081526004016110d99061218d565b60405180910390fd5b5f73ffffffffffffffffffffffffffffffffffffffff168173ffffffffffffffffffffffffffffffffffffffff1603611150576040517f08c379a000000000000000000000000000000000000000000000000000000000815260040161114790612730565b60405180910390fd5b5f60015f9054906101000a900473ffffffffffffffffffffffffffffffffffffffff1690508160015f6101000a81548173ffffffffffffffffffffffffffffffffffffffff021916908373ffffffffffffffffffffffffffffffffffffffff1602179055508173ffffffffffffffffffffffffffffffffffffffff168173ffffffffffffffffffffffffffffffffffffffff167f8be0079c531659141344cd1fd0a4f28419497f9722a3daafe3b4186f6b6457e060405160405180910390a35050565b60025f9054906101000a900473ffffffffffffffffffffffffffffffffffffffff1681565b5f808460070b90505f8360ff168560030b6112539190612757565b90505f811315611305575f81600a61126b919061255d565b90505f818461127a9190612798565b9050677fffffffffffffff60070b81131580156112ba57507fffffffffffffffffffffffffffffffffffffffffffffffff800000000000000060070b8112155b6112f9576040517f08c379a00000000000000000000000000000000000000000000000000000000081526004016112f090612858565b60405180910390fd5b80945050505050611342565b5f81121561133c575f8161131890612876565b600a611324919061255d565b9050808361133291906128bc565b9350505050611342565b85925050505b9392505050565b5f8260070b1361138e576040517f08c379a00000000000000000000000000000000000000000000000000000000081526004016113859061296e565b60405180910390fd5b60128160ff1611156113d5576040517f08c379a00000000000000000000000000000000000000000000000000000000081526004016113cc906129d6565b60405180910390fd5b60405180608001604052808360070b81526020018260ff168152602001428152602001600115158152505f808581526020019081526020015f205f820151815f015f6101000a81548167ffffffffffffffff021916908360070b67ffffffffffffffff1602179055506020820151815f0160086101000a81548160ff021916908360ff160217905550604082015181600101556060820151816002015f6101000a81548160ff021916908315150217905550905050827f811882eed432a6350dc90c2f76aedda5b0fa10edb7fe47b4adf237173cfe2ee28383426040516114be939291906118b8565b60405180910390a2505050565b60605f8203611511576040518060400160405280600181526020017f30000000000000000000000000000000000000000000000000000000000000008152509050611644565b5f8290505f5b5f8214611540578080611529906129f4565b915050600a8261153991906125d4565b9150611517565b5f8167ffffffffffffffff81111561155b5761155a611f28565b5b6040519080825280601f01601f19166020018201604052801561158d5781602001600182028036833780820191505090505b5090505f8290505b5f861461163c576001816115a991906122c3565b90505f600a80886115ba91906125d4565b6115c49190612a3b565b876115cf91906122c3565b60306115db9190612a7c565b90505f8160f81b9050808484815181106115f8576115f7612213565b5b60200101907effffffffffffffffffffffffffffffffffffffffffffffffffffffffffffff191690815f1a905350600a8861163391906125d4565b97505050611595565b819450505050505b919050565b60605f8390508260ff1681511061166357839150506117cd565b5f8360ff1667ffffffffffffffff81111561168157611680611f28565b5b6040519080825280601f01601f1916602001820160405280156116b35781602001600182028036833780820191505090505b5090505f82518560ff166116c791906122c3565b90505f5b81811015611742577f300000000000000000000000000000000000000000000000000000000000000083828151811061170757611706612213565b5b60200101907effffffffffffffffffffffffffffffffffffffffffffffffffffffffffffff191690815f1a90535080806001019150506116cb565b505f5b83518110156117c55783818151811061176157611760612213565b5b602001015160f81c60f81b8382846117799190612ab0565b8151811061178a57611789612213565b5b60200101907effffffffffffffffffffffffffffffffffffffffffffffffffffffffffffff191690815f1a9053508080600101915050611745565b508193505050505b92915050565b5f819050919050565b6117e5816117d3565b82525050565b5f6020820190506117fe5f8301846117dc565b92915050565b5f604051905090565b5f80fd5b5f80fd5b61181e816117d3565b8114611828575f80fd5b50565b5f8135905061183981611815565b92915050565b5f602082840312156118545761185361180d565b5b5f6118618482850161182b565b91505092915050565b5f8160070b9050919050565b61187f8161186a565b82525050565b5f60ff82169050919050565b61189a81611885565b82525050565b5f819050919050565b6118b2816118a0565b82525050565b5f6060820190506118cb5f830186611876565b6118d86020830185611891565b6118e560408301846118a9565b949350505050565b5f80fd5b5f80fd5b5f80fd5b5f8083601f84011261190e5761190d6118ed565b5b8235905067ffffffffffffffff81111561192b5761192a6118f1565b5b602083019150836020820283011115611947576119466118f5565b5b9250929050565b5f8083601f840112611963576119626118ed565b5b8235905067ffffffffffffffff8111156119805761197f6118f1565b5b60208301915083602082028301111561199c5761199b6118f5565b5b9250929050565b5f8083601f8401126119b8576119b76118ed565b5b8235905067ffffffffffffffff8111156119d5576119d46118f1565b5b6020830191508360208202830111156119f1576119f06118f5565b5b9250929050565b5f805f805f8060608789031215611a1257611a1161180d565b5b5f87013567ffffffffffffffff811115611a2f57611a2e611811565b5b611a3b89828a016118f9565b9650965050602087013567ffffffffffffffff811115611a5e57611a5d611811565b5b611a6a89828a0161194e565b9450945050604087013567ffffffffffffffff811115611a8d57611a8c611811565b5b611a9989828a016119a3565b92509250509295509295509295565b611ab1816118a0565b8114611abb575f80fd5b50565b5f81359050611acc81611aa8565b92915050565b5f8060408385031215611ae857611ae761180d565b5b5f611af58582860161182b565b9250506020611b0685828601611abe565b9150509250929050565b5f604082019050611b235f830185611876565b611b306020830184611891565b9392505050565b5f8115159050919050565b611b4b81611b37565b82525050565b5f608082019050611b645f830187611876565b611b716020830186611891565b611b7e60408301856118a9565b611b8b6060830184611b42565b95945050505050565b5f602082019050611ba75f830184611b42565b92915050565b5f602082019050611bc05f830184611891565b92915050565b5f73ffffffffffffffffffffffffffffffffffffffff82169050919050565b5f611bef82611bc6565b9050919050565b611bff81611be5565b82525050565b5f602082019050611c185f830184611bf6565b92915050565b5f602082019050611c315f8301846118a9565b92915050565b5f8060408385031215611c4d57611c4c61180d565b5b5f611c5a8582860161182b565b9250506020611c6b8582860161182b565b9150509250929050565b5f81519050919050565b5f82825260208201905092915050565b5f819050602082019050919050565b611ca7816117d3565b82525050565b5f611cb88383611c9e565b60208301905092915050565b5f602082019050919050565b5f611cda82611c75565b611ce48185611c7f565b9350611cef83611c8f565b805f5b83811015611d1f578151611d068882611cad565b9750611d1183611cc4565b925050600181019050611cf2565b5085935050505092915050565b5f6020820190508181035f830152611d448184611cd0565b905092915050565b611d558161186a565b8114611d5f575f80fd5b50565b5f81359050611d7081611d4c565b92915050565b611d7f81611885565b8114611d89575f80fd5b50565b5f81359050611d9a81611d76565b92915050565b5f805f60608486031215611db757611db661180d565b5b5f611dc48682870161182b565b9350506020611dd586828701611d62565b9250506040611de686828701611d8c565b9150509250925092565b611df981611be5565b8114611e03575f80fd5b50565b5f81359050611e1481611df0565b92915050565b5f60208284031215611e2f57611e2e61180d565b5b5f611e3c84828501611e06565b91505092915050565b5f81519050919050565b5f82825260208201905092915050565b5f5b83811015611e7c578082015181840152602081019050611e61565b5f8484015250505050565b5f601f19601f8301169050919050565b5f611ea182611e45565b611eab8185611e4f565b9350611ebb818560208601611e5f565b611ec481611e87565b840191505092915050565b5f6040820190508181035f830152611ee78185611e97565b9050611ef66020830184611891565b9392505050565b5f604082019050611f105f8301856117dc565b611f1d60208301846118a9565b9392505050565b5f80fd5b7f4e487b71000000000000000000000000000000000000000000000000000000005f52604160045260245ffd5b611f5e82611e87565b810181811067ffffffffffffffff82111715611f7d57611f7c611f28565b5b80604052505050565b5f611f8f611804565b9050611f9b8282611f55565b919050565b5f81519050611fae81611d4c565b92915050565b5f67ffffffffffffffff82169050919050565b611fd081611fb4565b8114611fda575f80fd5b50565b5f81519050611feb81611fc7565b92915050565b5f8160030b9050919050565b61200681611ff1565b8114612010575f80fd5b50565b5f8151905061202181611ffd565b92915050565b5f8151905061203581611aa8565b92915050565b5f608082840312156120505761204f611f24565b5b61205a6080611f86565b90505f61206984828501611fa0565b5f83015250602061207c84828501611fdd565b602083015250604061209084828501612013565b60408301525060606120a484828501612027565b60608301525092915050565b5f608082840312156120c5576120c461180d565b5b5f6120d28482850161203b565b91505092915050565b7f5072696365206e6f7420617661696c61626c65000000000000000000000000005f82015250565b5f61210f601383611e4f565b915061211a826120db565b602082019050919050565b5f6020820190508181035f83015261213c81612103565b9050919050565b7f4f6e6c79206f776e65722063616e2063616c6c207468697300000000000000005f82015250565b5f612177601883611e4f565b915061218282612143565b602082019050919050565b5f6020820190508181035f8301526121a48161216b565b9050919050565b7f4172726179206c656e677468206d69736d6174636800000000000000000000005f82015250565b5f6121df601583611e4f565b91506121ea826121ab565b602082019050919050565b5f6020820190508181035f83015261220c816121d3565b9050919050565b7f4e487b71000000000000000000000000000000000000000000000000000000005f52603260045260245ffd5b5f602082840312156122555761225461180d565b5b5f61226284828501611d62565b91505092915050565b5f602082840312156122805761227f61180d565b5b5f61228d84828501611d8c565b91505092915050565b7f4e487b71000000000000000000000000000000000000000000000000000000005f52601160045260245ffd5b5f6122cd826118a0565b91506122d8836118a0565b92508282039050818111156122f0576122ef612296565b5b92915050565b7f5374616c652070726963650000000000000000000000000000000000000000005f82015250565b5f61232a600b83611e4f565b9150612335826122f6565b602082019050919050565b5f6020820190508181035f8301526123578161231e565b9050919050565b7f496e76616c696420706172616d730000000000000000000000000000000000005f82015250565b5f612392600e83611e4f565b915061239d8261235e565b602082019050919050565b5f6020820190508181035f8301526123bf81612386565b9050919050565b7f496e76616c6964205079746820616464726573730000000000000000000000005f82015250565b5f6123fa601483611e4f565b9150612405826123c6565b602082019050919050565b5f6020820190508181035f830152612427816123ee565b9050919050565b5f8160011c9050919050565b5f808291508390505b60018511156124835780860481111561245f5761245e612296565b5b600185161561246e5780820291505b808102905061247c8561242e565b9450612443565b94509492505050565b5f8261249b5760019050612556565b816124a8575f9050612556565b81600181146124be57600281146124c8576124f7565b6001915050612556565b60ff8411156124da576124d9612296565b5b8360020a9150848211156124f1576124f0612296565b5b50612556565b5060208310610133831016604e8410600b841016171561252c5782820a90508381111561252757612526612296565b5b612556565b612539848484600161243a565b925090508184048111156125505761254f612296565b5b81810290505b9392505050565b5f612567826118a0565b9150612572836118a0565b925061259f7fffffffffffffffffffffffffffffffffffffffffffffffffffffffffffffffff848461248c565b905092915050565b7f4e487b71000000000000000000000000000000000000000000000000000000005f52601260045260245ffd5b5f6125de826118a0565b91506125e9836118a0565b9250826125f9576125f86125a7565b5b828204905092915050565b5f61260e826118a0565b9150612619836118a0565b925082612629576126286125a7565b5b828206905092915050565b5f81905092915050565b5f61264882611e45565b6126528185612634565b9350612662818560208601611e5f565b80840191505092915050565b7f2e000000000000000000000000000000000000000000000000000000000000005f82015250565b5f6126a2600183612634565b91506126ad8261266e565b600182019050919050565b5f6126c3828561263e565b91506126ce82612696565b91506126da828461263e565b91508190509392505050565b7f496e76616c6964206e6577206f776e65720000000000000000000000000000005f82015250565b5f61271a601183611e4f565b9150612725826126e6565b602082019050919050565b5f6020820190508181035f8301526127478161270e565b9050919050565b5f819050919050565b5f6127618261274e565b915061276c8361274e565b92508282019050828112155f8312168382125f84121516171561279257612791612296565b5b92915050565b5f6127a28261274e565b91506127ad8361274e565b92508282026127bb8161274e565b91507f800000000000000000000000000000000000000000000000000000000000000084145f841216156127f2576127f1612296565b5b828205841483151761280757612806612296565b5b5092915050565b7f4f766572666c6f770000000000000000000000000000000000000000000000005f82015250565b5f612842600883611e4f565b915061284d8261280e565b602082019050919050565b5f6020820190508181035f83015261286f81612836565b9050919050565b5f6128808261274e565b91507f800000000000000000000000000000000000000000000000000000000000000082036128b2576128b1612296565b5b815f039050919050565b5f6128c68261274e565b91506128d18361274e565b9250826128e1576128e06125a7565b5b60015f0383147f80000000000000000000000000000000000000000000000000000000000000008314161561291957612918612296565b5b828205905092915050565b7f5072696365206d75737420626520706f736974697665000000000000000000005f82015250565b5f612958601683611e4f565b915061296382612924565b602082019050919050565b5f6020820190508181035f8301526129858161294c565b9050919050565b7f546f6f206d616e7920646563696d616c730000000000000000000000000000005f82015250565b5f6129c0601183611e4f565b91506129cb8261298c565b602082019050919050565b5f6020820190508181035f8301526129ed816129b4565b9050919050565b5f6129fe826118a0565b91507fffffffffffffffffffffffffffffffffffffffffffffffffffffffffffffffff8203612a3057612a2f612296565b5b600182019050919050565b5f612a45826118a0565b9150612a50836118a0565b9250828202612a5e816118a0565b91508282048414831517612a7557612a74612296565b5b5092915050565b5f612a8682611885565b9150612a9183611885565b9250828201905060ff811115612aaa57612aa9612296565b5b92915050565b5f612aba826118a0565b9150612ac5836118a0565b9250828201905080821115612add57612adc612296565b5b9291505056fea2646970667358221220d9fae45eeca48541d8c2223e9f27e612c549d5039d2dff2e33f471486d82477b64736f6c63430008180033",
  "linkReferences": {},
  "deployedLinkReferences": {},
  "immutableReferences": {},
  "inputSourceName": "project/contracts/OracleAdapter.sol",
  "buildInfoId": "solc-0_8_24-bc3a8eed72f778837304b0ae2d99f87fb40d7508"
}